{"abi":[{"inputs":[{"internalType":"uint256","name":"minimum","type":"uint256"},{"internalType":"address","name":"creator","type":"address"}],"stateMutability":"nonpayable","type":"constructor"},{"inputs":[{"internalType":"uint256","name":"index","type":"uint256"}],"name":"approveRequest","outputs":[],"stateMutability":"nonpayable","type":"function"},{"inputs":[{"internalType":"address","name":"","type":"address"}],"name":"approvers","outputs":[{"internalType":"bool","name":"","type":"bool"}],"stateMutability":"view","type":"function"},{"inputs":[],"name":"approversCount","outputs":[{"internalType":"uint256","name":"","type":"uint256"}],"stateMutability":"view","type":"function"},{"inputs":[],"name":"contribute","outputs":[],"stateMutability":"payable","type":"function"},{"inputs":[{"internalType":"string","name":"description","type":"string"},{"internalType":"uint256","name":"value","type":"uint256"},{"internalType":"address","name":"recipient","type":"address"}],"name":"createRequest","outputs":[],"stateMutability":"nonpayable","type":"function"},{"inputs":[{"internalType":"uint256","name":"index","type":"uint256"}],"name":"finalizeRequest","outputs":[],"stateMutability":"nonpayable","type":"function"},{"inputs":[],"name":"getSummary","outputs":[{"components":[{"internalType":"address","name":"manager","type":"address"},{"internalType":"uint256","name":"minimumContribution","type":"uint256"},{"internalType":"uint256","name":"requestsCount","type":"uint256"},{"internalType":"uint256","name":"approversCount","type":"uint256"},{"internalType":"uint256","name":"balance","type":"uint256"}],"internalType":"struct Campaign.Summary","name":"","type":"tuple"}],"stateMutability":"view","type":"function"},{"inputs":[],"name":"manager","outputs":[{"internalType":"address","name":"","type":"address"}],"stateMutability":"view","type":"function"},{"inputs":[],"name":"minimumContribution","outputs":[{"internalType":"uint256","name":"","type":"uint256"}],"stateMutability":"view","type":"function"},{"inputs":[{"internalType":"uint256","name":"","type":"uint256"}],"name":"requests","outputs":[{"internalType":"string","name":"description","type":"string"},{"internalType":"uint256","name":"value","type":"uint256"},{"internalType":"address","name":"recipient","type":"address"},{"internalType":"bool","name":"complete","type":"bool"},{"internalType":"uint256","name":"approvalsCount","type":"uint256"}],"stateMutability":"view","type":"function"}],"devdoc":{"kind":"dev","methods":{},"version":1},"evm":{"assembly":"    /* \"Campaign.sol\":448:2736  contract Campaign {... */\n  mstore(0x40, 0x80)\n    /* \"Campaign.sol\":1111:1227  constructor(uint minimum, address creator) {... */\n  callvalue\n  dup1\n  iszero\n  tag_1\n  jumpi\n  0x00\n  dup1\n  revert\ntag_1:\n  pop\n  mload(0x40)\n  sub(codesize, bytecodeSize)\n  dup1\n  bytecodeSize\n  dup4\n  codecopy\n  dup2\n  dup2\n  add\n  0x40\n  mstore\n  dup2\n  add\n  swap1\n  tag_2\n  swap2\n  swap1\n  tag_3\n  jump\t// in\ntag_2:\n    /* \"Campaign.sol\":1174:1181  creator */\n  dup1\n    /* \"Campaign.sol\":1164:1171  manager */\n  0x01\n  0x00\n    /* \"Campaign.sol\":1164:1181  manager = creator */\n  0x0100\n  exp\n  dup2\n  sload\n  dup2\n  0xffffffffffffffffffffffffffffffffffffffff\n  mul\n  not\n  and\n  swap1\n  dup4\n  0xffffffffffffffffffffffffffffffffffffffff\n  and\n  mul\n  or\n  swap1\n  sstore\n  pop\n    /* \"Campaign.sol\":1213:1220  minimum */\n  dup2\n    /* \"Campaign.sol\":1191:1210  minimumContribution */\n  0x02\n    /* \"Campaign.sol\":1191:1220  minimumContribution = minimum */\n  dup2\n  swap1\n  sstore\n  pop\n    /* \"Campaign.sol\":1111:1227  constructor(uint minimum, address creator) {... */\n  pop\n  pop\n    /* \"Campaign.sol\":448:2736  contract Campaign {... */\n  jump(tag_6)\n    /* \"#utility.yul\":88:205   */\ntag_8:\n    /* \"#utility.yul\":197:198   */\n  0x00\n    /* \"#utility.yul\":194:195   */\n  dup1\n    /* \"#utility.yul\":187:199   */\n  revert\n    /* \"#utility.yul\":334:411   */\ntag_10:\n    /* \"#utility.yul\":371:378   */\n  0x00\n    /* \"#utility.yul\":400:405   */\n  dup2\n    /* \"#utility.yul\":389:405   */\n  swap1\n  pop\n    /* \"#utility.yul\":334:411   */\n  swap2\n  swap1\n  pop\n  jump\t// out\n    /* \"#utility.yul\":417:539   */\ntag_11:\n    /* \"#utility.yul\":490:514   */\n  tag_23\n    /* \"#utility.yul\":508:513   */\n  dup2\n    /* \"#utility.yul\":490:514   */\n  tag_10\n  jump\t// in\ntag_23:\n    /* \"#utility.yul\":483:488   */\n  dup2\n    /* \"#utility.yul\":480:515   */\n  eq\n    /* \"#utility.yul\":470:533   */\n  tag_24\n  jumpi\n    /* \"#utility.yul\":529:530   */\n  0x00\n    /* \"#utility.yul\":526:527   */\n  dup1\n    /* \"#utility.yul\":519:531   */\n  revert\n    /* \"#utility.yul\":470:533   */\ntag_24:\n    /* \"#utility.yul\":417:539   */\n  pop\n  jump\t// out\n    /* \"#utility.yul\":545:688   */\ntag_12:\n    /* \"#utility.yul\":602:607   */\n  0x00\n    /* \"#utility.yul\":633:639   */\n  dup2\n    /* \"#utility.yul\":627:640   */\n  mload\n    /* \"#utility.yul\":618:640   */\n  swap1\n  pop\n    /* \"#utility.yul\":649:682   */\n  tag_26\n    /* \"#utility.yul\":676:681   */\n  dup2\n    /* \"#utility.yul\":649:682   */\n  tag_11\n  jump\t// in\ntag_26:\n    /* \"#utility.yul\":545:688   */\n  swap3\n  swap2\n  pop\n  pop\n  jump\t// out\n    /* \"#utility.yul\":694:820   */\ntag_13:\n    /* \"#utility.yul\":731:738   */\n  0x00\n    /* \"#utility.yul\":771:813   */\n  0xffffffffffffffffffffffffffffffffffffffff\n    /* \"#utility.yul\":764:769   */\n  dup3\n    /* \"#utility.yul\":760:814   */\n  and\n    /* \"#utility.yul\":749:814   */\n  swap1\n  pop\n    /* \"#utility.yul\":694:820   */\n  swap2\n  swap1\n  pop\n  jump\t// out\n    /* \"#utility.yul\":826:922   */\ntag_14:\n    /* \"#utility.yul\":863:870   */\n  0x00\n    /* \"#utility.yul\":892:916   */\n  tag_29\n    /* \"#utility.yul\":910:915   */\n  dup3\n    /* \"#utility.yul\":892:916   */\n  tag_13\n  jump\t// in\ntag_29:\n    /* \"#utility.yul\":881:916   */\n  swap1\n  pop\n    /* \"#utility.yul\":826:922   */\n  swap2\n  swap1\n  pop\n  jump\t// out\n    /* \"#utility.yul\":928:1050   */\ntag_15:\n    /* \"#utility.yul\":1001:1025   */\n  tag_31\n    /* \"#utility.yul\":1019:1024   */\n  dup2\n    /* \"#utility.yul\":1001:1025   */\n  tag_14\n  jump\t// in\ntag_31:\n    /* \"#utility.yul\":994:999   */\n  dup2\n    /* \"#utility.yul\":991:1026   */\n  eq\n    /* \"#utility.yul\":981:1044   */\n  tag_32\n  jumpi\n    /* \"#utility.yul\":1040:1041   */\n  0x00\n    /* \"#utility.yul\":1037:1038   */\n  dup1\n    /* \"#utility.yul\":1030:1042   */\n  revert\n    /* \"#utility.yul\":981:1044   */\ntag_32:\n    /* \"#utility.yul\":928:1050   */\n  pop\n  jump\t// out\n    /* \"#utility.yul\":1056:1199   */\ntag_16:\n    /* \"#utility.yul\":1113:1118   */\n  0x00\n    /* \"#utility.yul\":1144:1150   */\n  dup2\n    /* \"#utility.yul\":1138:1151   */\n  mload\n    /* \"#utility.yul\":1129:1151   */\n  swap1\n  pop\n    /* \"#utility.yul\":1160:1193   */\n  tag_34\n    /* \"#utility.yul\":1187:1192   */\n  dup2\n    /* \"#utility.yul\":1160:1193   */\n  tag_15\n  jump\t// in\ntag_34:\n    /* \"#utility.yul\":1056:1199   */\n  swap3\n  swap2\n  pop\n  pop\n  jump\t// out\n    /* \"#utility.yul\":1205:1712   */\ntag_3:\n    /* \"#utility.yul\":1284:1290   */\n  0x00\n    /* \"#utility.yul\":1292:1298   */\n  dup1\n    /* \"#utility.yul\":1341:1343   */\n  0x40\n    /* \"#utility.yul\":1329:1338   */\n  dup4\n    /* \"#utility.yul\":1320:1327   */\n  dup6\n    /* \"#utility.yul\":1316:1339   */\n  sub\n    /* \"#utility.yul\":1312:1344   */\n  slt\n    /* \"#utility.yul\":1309:1428   */\n  iszero\n  tag_36\n  jumpi\n    /* \"#utility.yul\":1347:1426   */\n  tag_37\n  tag_8\n  jump\t// in\ntag_37:\n    /* \"#utility.yul\":1309:1428   */\ntag_36:\n    /* \"#utility.yul\":1467:1468   */\n  0x00\n    /* \"#utility.yul\":1492:1556   */\n  tag_38\n    /* \"#utility.yul\":1548:1555   */\n  dup6\n    /* \"#utility.yul\":1539:1545   */\n  dup3\n    /* \"#utility.yul\":1528:1537   */\n  dup7\n    /* \"#utility.yul\":1524:1546   */\n  add\n    /* \"#utility.yul\":1492:1556   */\n  tag_12\n  jump\t// in\ntag_38:\n    /* \"#utility.yul\":1482:1556   */\n  swap3\n  pop\n    /* \"#utility.yul\":1438:1566   */\n  pop\n    /* \"#utility.yul\":1605:1607   */\n  0x20\n    /* \"#utility.yul\":1631:1695   */\n  tag_39\n    /* \"#utility.yul\":1687:1694   */\n  dup6\n    /* \"#utility.yul\":1678:1684   */\n  dup3\n    /* \"#utility.yul\":1667:1676   */\n  dup7\n    /* \"#utility.yul\":1663:1685   */\n  add\n    /* \"#utility.yul\":1631:1695   */\n  tag_16\n  jump\t// in\ntag_39:\n    /* \"#utility.yul\":1621:1695   */\n  swap2\n  pop\n    /* \"#utility.yul\":1576:1705   */\n  pop\n    /* \"#utility.yul\":1205:1712   */\n  swap3\n  pop\n  swap3\n  swap1\n  pop\n  jump\t// out\n    /* \"Campaign.sol\":448:2736  contract Campaign {... */\ntag_6:\n  dataSize(sub_0)\n  dup1\n  dataOffset(sub_0)\n  0x00\n  codecopy\n  0x00\n  return\nstop\n\nsub_0: assembly {\n        /* \"Campaign.sol\":448:2736  contract Campaign {... */\n      mstore(0x40, 0x80)\n      jumpi(tag_1, lt(calldatasize, 0x04))\n      shr(0xe0, calldataload(0x00))\n      dup1\n      0x82fde093\n      gt\n      tag_12\n      jumpi\n      dup1\n      0x82fde093\n      eq\n      tag_7\n      jumpi\n      dup1\n      0x8a9cfd55\n      eq\n      tag_8\n      jumpi\n      dup1\n      0x937e09b1\n      eq\n      tag_9\n      jumpi\n      dup1\n      0xd7bb99ba\n      eq\n      tag_10\n      jumpi\n      dup1\n      0xd7d1bbdb\n      eq\n      tag_11\n      jumpi\n      jump(tag_1)\n    tag_12:\n      dup1\n      0x03441006\n      eq\n      tag_2\n      jumpi\n      dup1\n      0x0a144391\n      eq\n      tag_3\n      jumpi\n      dup1\n      0x4051ddac\n      eq\n      tag_4\n      jumpi\n      dup1\n      0x481c6a75\n      eq\n      tag_5\n      jumpi\n      dup1\n      0x81d12c58\n      eq\n      tag_6\n      jumpi\n    tag_1:\n      0x00\n      dup1\n      revert\n        /* \"Campaign.sol\":2065:2410  function finalizeRequest(uint index) public restricted {... */\n    tag_2:\n      callvalue\n      dup1\n      iszero\n      tag_13\n      jumpi\n      0x00\n      dup1\n      revert\n    tag_13:\n      pop\n      tag_14\n      0x04\n      dup1\n      calldatasize\n      sub\n      dup2\n      add\n      swap1\n      tag_15\n      swap2\n      swap1\n      tag_16\n      jump\t// in\n    tag_15:\n      tag_17\n      jump\t// in\n    tag_14:\n      stop\n        /* \"Campaign.sol\":945:986  mapping(address => bool) public approvers */\n    tag_3:\n      callvalue\n      dup1\n      iszero\n      tag_18\n      jumpi\n      0x00\n      dup1\n      revert\n    tag_18:\n      pop\n      tag_19\n      0x04\n      dup1\n      calldatasize\n      sub\n      dup2\n      add\n      swap1\n      tag_20\n      swap2\n      swap1\n      tag_21\n      jump\t// in\n    tag_20:\n      tag_22\n      jump\t// in\n    tag_19:\n      mload(0x40)\n      tag_23\n      swap2\n      swap1\n      tag_24\n      jump\t// in\n    tag_23:\n      mload(0x40)\n      dup1\n      swap2\n      sub\n      swap1\n      return\n        /* \"Campaign.sol\":2416:2734  function getSummary() public view returns (Summary memory) {... */\n    tag_4:\n      callvalue\n      dup1\n      iszero\n      tag_25\n      jumpi\n      0x00\n      dup1\n      revert\n    tag_25:\n      pop\n      tag_26\n      tag_27\n      jump\t// in\n    tag_26:\n      mload(0x40)\n      tag_28\n      swap2\n      swap1\n      tag_29\n      jump\t// in\n    tag_28:\n      mload(0x40)\n      dup1\n      swap2\n      sub\n      swap1\n      return\n        /* \"Campaign.sol\":880:902  address public manager */\n    tag_5:\n      callvalue\n      dup1\n      iszero\n      tag_30\n      jumpi\n      0x00\n      dup1\n      revert\n    tag_30:\n      pop\n      tag_31\n      tag_32\n      jump\t// in\n    tag_31:\n      mload(0x40)\n      tag_33\n      swap2\n      swap1\n      tag_34\n      jump\t// in\n    tag_33:\n      mload(0x40)\n      dup1\n      swap2\n      sub\n      swap1\n      return\n        /* \"Campaign.sol\":849:874  Request[] public requests */\n    tag_6:\n      callvalue\n      dup1\n      iszero\n      tag_35\n      jumpi\n      0x00\n      dup1\n      revert\n    tag_35:\n      pop\n      tag_36\n      0x04\n      dup1\n      calldatasize\n      sub\n      dup2\n      add\n      swap1\n      tag_37\n      swap2\n      swap1\n      tag_16\n      jump\t// in\n    tag_37:\n      tag_38\n      jump\t// in\n    tag_36:\n      mload(0x40)\n      tag_39\n      swap6\n      swap5\n      swap4\n      swap3\n      swap2\n      swap1\n      tag_40\n      jump\t// in\n    tag_39:\n      mload(0x40)\n      dup1\n      swap2\n      sub\n      swap1\n      return\n        /* \"Campaign.sol\":992:1018  uint public approversCount */\n    tag_7:\n      callvalue\n      dup1\n      iszero\n      tag_41\n      jumpi\n      0x00\n      dup1\n      revert\n    tag_41:\n      pop\n      tag_42\n      tag_43\n      jump\t// in\n    tag_42:\n      mload(0x40)\n      tag_44\n      swap2\n      swap1\n      tag_45\n      jump\t// in\n    tag_44:\n      mload(0x40)\n      dup1\n      swap2\n      sub\n      swap1\n      return\n        /* \"Campaign.sol\":1399:1757  function createRequest(string memory description, uint value, address recipient) public restricted {... */\n    tag_8:\n      callvalue\n      dup1\n      iszero\n      tag_46\n      jumpi\n      0x00\n      dup1\n      revert\n    tag_46:\n      pop\n      tag_47\n      0x04\n      dup1\n      calldatasize\n      sub\n      dup2\n      add\n      swap1\n      tag_48\n      swap2\n      swap1\n      tag_49\n      jump\t// in\n    tag_48:\n      tag_50\n      jump\t// in\n    tag_47:\n      stop\n        /* \"Campaign.sol\":908:939  uint public minimumContribution */\n    tag_9:\n      callvalue\n      dup1\n      iszero\n      tag_51\n      jumpi\n      0x00\n      dup1\n      revert\n    tag_51:\n      pop\n      tag_52\n      tag_53\n      jump\t// in\n    tag_52:\n      mload(0x40)\n      tag_54\n      swap2\n      swap1\n      tag_45\n      jump\t// in\n    tag_54:\n      mload(0x40)\n      dup1\n      swap2\n      sub\n      swap1\n      return\n        /* \"Campaign.sol\":1233:1393  function contribute() public payable {... */\n    tag_10:\n      tag_55\n      tag_56\n      jump\t// in\n    tag_55:\n      stop\n        /* \"Campaign.sol\":1763:2059  function approveRequest(uint index) public {... */\n    tag_11:\n      callvalue\n      dup1\n      iszero\n      tag_57\n      jumpi\n      0x00\n      dup1\n      revert\n    tag_57:\n      pop\n      tag_58\n      0x04\n      dup1\n      calldatasize\n      sub\n      dup2\n      add\n      swap1\n      tag_59\n      swap2\n      swap1\n      tag_16\n      jump\t// in\n    tag_59:\n      tag_60\n      jump\t// in\n    tag_58:\n      stop\n        /* \"Campaign.sol\":2065:2410  function finalizeRequest(uint index) public restricted {... */\n    tag_17:\n        /* \"Campaign.sol\":1079:1086  manager */\n      0x01\n      0x00\n      swap1\n      sload\n      swap1\n      0x0100\n      exp\n      swap1\n      div\n      0xffffffffffffffffffffffffffffffffffffffff\n      and\n        /* \"Campaign.sol\":1065:1086  msg.sender == manager */\n      0xffffffffffffffffffffffffffffffffffffffff\n      and\n        /* \"Campaign.sol\":1065:1075  msg.sender */\n      caller\n        /* \"Campaign.sol\":1065:1086  msg.sender == manager */\n      0xffffffffffffffffffffffffffffffffffffffff\n      and\n      eq\n        /* \"Campaign.sol\":1057:1087  require(msg.sender == manager) */\n      tag_62\n      jumpi\n      0x00\n      dup1\n      revert\n    tag_62:\n        /* \"Campaign.sol\":2130:2159  Request storage targetRequest */\n      0x00\n        /* \"Campaign.sol\":2162:2170  requests */\n      dup1\n        /* \"Campaign.sol\":2171:2176  index */\n      dup3\n        /* \"Campaign.sol\":2162:2177  requests[index] */\n      dup2\n      sload\n      dup2\n      lt\n      tag_64\n      jumpi\n      tag_65\n      tag_66\n      jump\t// in\n    tag_65:\n    tag_64:\n      swap1\n      0x00\n      mstore\n      keccak256(0x00, 0x20)\n      swap1\n      0x05\n      mul\n      add\n        /* \"Campaign.sol\":2130:2177  Request storage targetRequest = requests[index] */\n      swap1\n      pop\n        /* \"Campaign.sol\":2246:2247  2 */\n      0x02\n        /* \"Campaign.sol\":2229:2243  approversCount */\n      sload(0x04)\n        /* \"Campaign.sol\":2229:2247  approversCount / 2 */\n      tag_68\n      swap2\n      swap1\n      tag_69\n      jump\t// in\n    tag_68:\n        /* \"Campaign.sol\":2196:2209  targetRequest */\n      dup2\n        /* \"Campaign.sol\":2196:2224  targetRequest.approvalsCount */\n      0x03\n      add\n      sload\n        /* \"Campaign.sol\":2196:2248  targetRequest.approvalsCount >= (approversCount / 2) */\n      lt\n      iszero\n        /* \"Campaign.sol\":2188:2249  require(targetRequest.approvalsCount >= (approversCount / 2)) */\n      tag_70\n      jumpi\n      0x00\n      dup1\n      revert\n    tag_70:\n        /* \"Campaign.sol\":2268:2281  targetRequest */\n      dup1\n        /* \"Campaign.sol\":2268:2290  targetRequest.complete */\n      0x02\n      add\n      0x14\n      swap1\n      sload\n      swap1\n      0x0100\n      exp\n      swap1\n      div\n      0xff\n      and\n        /* \"Campaign.sol\":2267:2290  !targetRequest.complete */\n      iszero\n        /* \"Campaign.sol\":2259:2291  require(!targetRequest.complete) */\n      tag_71\n      jumpi\n      0x00\n      dup1\n      revert\n    tag_71:\n        /* \"Campaign.sol\":2310:2323  targetRequest */\n      dup1\n        /* \"Campaign.sol\":2310:2333  targetRequest.recipient */\n      0x02\n      add\n      0x00\n      swap1\n      sload\n      swap1\n      0x0100\n      exp\n      swap1\n      div\n      0xffffffffffffffffffffffffffffffffffffffff\n      and\n        /* \"Campaign.sol\":2302:2343  payable(targetRequest.recipient).transfer */\n      0xffffffffffffffffffffffffffffffffffffffff\n      and\n        /* \"Campaign.sol\":2302:2364  payable(targetRequest.recipient).transfer(targetRequest.value) */\n      0x08fc\n        /* \"Campaign.sol\":2344:2357  targetRequest */\n      dup3\n        /* \"Campaign.sol\":2344:2363  targetRequest.value */\n      0x01\n      add\n      sload\n        /* \"Campaign.sol\":2302:2364  payable(targetRequest.recipient).transfer(targetRequest.value) */\n      swap1\n      dup2\n      iszero\n      mul\n      swap1\n      mload(0x40)\n      0x00\n      mload(0x40)\n      dup1\n      dup4\n      sub\n      dup2\n      dup6\n      dup9\n      dup9\n      call\n      swap4\n      pop\n      pop\n      pop\n      pop\n      iszero\n      dup1\n      iszero\n      tag_73\n      jumpi\n      returndatasize\n      0x00\n      dup1\n      returndatacopy\n      revert(0x00, returndatasize)\n    tag_73:\n      pop\n        /* \"Campaign.sol\":2399:2403  true */\n      0x01\n        /* \"Campaign.sol\":2374:2387  targetRequest */\n      dup2\n        /* \"Campaign.sol\":2374:2396  targetRequest.complete */\n      0x02\n      add\n      0x14\n        /* \"Campaign.sol\":2374:2403  targetRequest.complete = true */\n      0x0100\n      exp\n      dup2\n      sload\n      dup2\n      0xff\n      mul\n      not\n      and\n      swap1\n      dup4\n      iszero\n      iszero\n      mul\n      or\n      swap1\n      sstore\n      pop\n        /* \"Campaign.sol\":2120:2410  {... */\n      pop\n        /* \"Campaign.sol\":2065:2410  function finalizeRequest(uint index) public restricted {... */\n      pop\n      jump\t// out\n        /* \"Campaign.sol\":945:986  mapping(address => bool) public approvers */\n    tag_22:\n      mstore(0x20, 0x03)\n      dup1\n      0x00\n      mstore\n      keccak256(0x00, 0x40)\n      0x00\n      swap2\n      pop\n      sload\n      swap1\n      0x0100\n      exp\n      swap1\n      div\n      0xff\n      and\n      dup2\n      jump\t// out\n        /* \"Campaign.sol\":2416:2734  function getSummary() public view returns (Summary memory) {... */\n    tag_27:\n        /* \"Campaign.sol\":2459:2473  Summary memory */\n      tag_74\n      tag_75\n      jump\t// in\n    tag_74:\n        /* \"Campaign.sol\":2492:2727  Summary({... */\n      mload(0x40)\n      dup1\n      0xa0\n      add\n      0x40\n      mstore\n      dup1\n        /* \"Campaign.sol\":2523:2530  manager */\n      0x01\n      0x00\n      swap1\n      sload\n      swap1\n      0x0100\n      exp\n      swap1\n      div\n      0xffffffffffffffffffffffffffffffffffffffff\n      and\n        /* \"Campaign.sol\":2492:2727  Summary({... */\n      0xffffffffffffffffffffffffffffffffffffffff\n      and\n      dup2\n      mstore\n      0x20\n      add\n        /* \"Campaign.sol\":2565:2584  minimumContribution */\n      sload(0x02)\n        /* \"Campaign.sol\":2492:2727  Summary({... */\n      dup2\n      mstore\n      0x20\n      add\n        /* \"Campaign.sol\":2613:2621  requests */\n      0x00\n        /* \"Campaign.sol\":2613:2628  requests.length */\n      dup1\n      sload\n      swap1\n      pop\n        /* \"Campaign.sol\":2492:2727  Summary({... */\n      dup2\n      mstore\n      0x20\n      add\n        /* \"Campaign.sol\":2658:2672  approversCount */\n      sload(0x04)\n        /* \"Campaign.sol\":2492:2727  Summary({... */\n      dup2\n      mstore\n      0x20\n      add\n        /* \"Campaign.sol\":2695:2716  address(this).balance */\n      selfbalance\n        /* \"Campaign.sol\":2492:2727  Summary({... */\n      dup2\n      mstore\n      pop\n        /* \"Campaign.sol\":2485:2727  return Summary({... */\n      swap1\n      pop\n        /* \"Campaign.sol\":2416:2734  function getSummary() public view returns (Summary memory) {... */\n      swap1\n      jump\t// out\n        /* \"Campaign.sol\":880:902  address public manager */\n    tag_32:\n      0x01\n      0x00\n      swap1\n      sload\n      swap1\n      0x0100\n      exp\n      swap1\n      div\n      0xffffffffffffffffffffffffffffffffffffffff\n      and\n      dup2\n      jump\t// out\n        /* \"Campaign.sol\":849:874  Request[] public requests */\n    tag_38:\n      0x00\n      dup2\n      dup2\n      sload\n      dup2\n      lt\n      tag_77\n      jumpi\n      0x00\n      dup1\n      revert\n    tag_77:\n      swap1\n      0x00\n      mstore\n      keccak256(0x00, 0x20)\n      swap1\n      0x05\n      mul\n      add\n      0x00\n      swap2\n      pop\n      swap1\n      pop\n      dup1\n      0x00\n      add\n      dup1\n      sload\n      tag_79\n      swap1\n      tag_80\n      jump\t// in\n    tag_79:\n      dup1\n      0x1f\n      add\n      0x20\n      dup1\n      swap2\n      div\n      mul\n      0x20\n      add\n      mload(0x40)\n      swap1\n      dup2\n      add\n      0x40\n      mstore\n      dup1\n      swap3\n      swap2\n      swap1\n      dup2\n      dup2\n      mstore\n      0x20\n      add\n      dup3\n      dup1\n      sload\n      tag_81\n      swap1\n      tag_80\n      jump\t// in\n    tag_81:\n      dup1\n      iszero\n      tag_82\n      jumpi\n      dup1\n      0x1f\n      lt\n      tag_83\n      jumpi\n      0x0100\n      dup1\n      dup4\n      sload\n      div\n      mul\n      dup4\n      mstore\n      swap2\n      0x20\n      add\n      swap2\n      jump(tag_82)\n    tag_83:\n      dup3\n      add\n      swap2\n      swap1\n      0x00\n      mstore\n      keccak256(0x00, 0x20)\n      swap1\n    tag_84:\n      dup2\n      sload\n      dup2\n      mstore\n      swap1\n      0x01\n      add\n      swap1\n      0x20\n      add\n      dup1\n      dup4\n      gt\n      tag_84\n      jumpi\n      dup3\n      swap1\n      sub\n      0x1f\n      and\n      dup3\n      add\n      swap2\n    tag_82:\n      pop\n      pop\n      pop\n      pop\n      pop\n      swap1\n      dup1\n      0x01\n      add\n      sload\n      swap1\n      dup1\n      0x02\n      add\n      0x00\n      swap1\n      sload\n      swap1\n      0x0100\n      exp\n      swap1\n      div\n      0xffffffffffffffffffffffffffffffffffffffff\n      and\n      swap1\n      dup1\n      0x02\n      add\n      0x14\n      swap1\n      sload\n      swap1\n      0x0100\n      exp\n      swap1\n      div\n      0xff\n      and\n      swap1\n      dup1\n      0x03\n      add\n      sload\n      swap1\n      pop\n      dup6\n      jump\t// out\n        /* \"Campaign.sol\":992:1018  uint public approversCount */\n    tag_43:\n      sload(0x04)\n      dup2\n      jump\t// out\n        /* \"Campaign.sol\":1399:1757  function createRequest(string memory description, uint value, address recipient) public restricted {... */\n    tag_50:\n        /* \"Campaign.sol\":1079:1086  manager */\n      0x01\n      0x00\n      swap1\n      sload\n      swap1\n      0x0100\n      exp\n      swap1\n      div\n      0xffffffffffffffffffffffffffffffffffffffff\n      and\n        /* \"Campaign.sol\":1065:1086  msg.sender == manager */\n      0xffffffffffffffffffffffffffffffffffffffff\n      and\n        /* \"Campaign.sol\":1065:1075  msg.sender */\n      caller\n        /* \"Campaign.sol\":1065:1086  msg.sender == manager */\n      0xffffffffffffffffffffffffffffffffffffffff\n      and\n      eq\n        /* \"Campaign.sol\":1057:1087  require(msg.sender == manager) */\n      tag_86\n      jumpi\n      0x00\n      dup1\n      revert\n    tag_86:\n        /* \"Campaign.sol\":1508:1534  Request storage newRequest */\n      0x00\n        /* \"Campaign.sol\":1537:1545  requests */\n      dup1\n        /* \"Campaign.sol\":1537:1552  requests.push() */\n      0x01\n      dup2\n      0x01\n      dup2\n      sload\n      add\n      dup1\n      dup3\n      sstore\n      dup1\n      swap2\n      pop\n      pop\n      sub\n      swap1\n      0x00\n      mstore\n      keccak256(0x00, 0x20)\n      swap1\n      0x05\n      mul\n      add\n        /* \"Campaign.sol\":1508:1552  Request storage newRequest = requests.push() */\n      swap1\n      pop\n        /* \"Campaign.sol\":1587:1598  description */\n      dup4\n        /* \"Campaign.sol\":1562:1572  newRequest */\n      dup2\n        /* \"Campaign.sol\":1562:1584  newRequest.description */\n      0x00\n      add\n        /* \"Campaign.sol\":1562:1598  newRequest.description = description */\n      swap1\n      dup2\n      tag_89\n      swap2\n      swap1\n      tag_90\n      jump\t// in\n    tag_89:\n      pop\n        /* \"Campaign.sol\":1627:1632  value */\n      dup3\n        /* \"Campaign.sol\":1608:1618  newRequest */\n      dup2\n        /* \"Campaign.sol\":1608:1624  newRequest.value */\n      0x01\n      add\n        /* \"Campaign.sol\":1608:1632  newRequest.value = value */\n      dup2\n      swap1\n      sstore\n      pop\n        /* \"Campaign.sol\":1665:1674  recipient */\n      dup2\n        /* \"Campaign.sol\":1642:1652  newRequest */\n      dup2\n        /* \"Campaign.sol\":1642:1662  newRequest.recipient */\n      0x02\n      add\n      0x00\n        /* \"Campaign.sol\":1642:1674  newRequest.recipient = recipient */\n      0x0100\n      exp\n      dup2\n      sload\n      dup2\n      0xffffffffffffffffffffffffffffffffffffffff\n      mul\n      not\n      and\n      swap1\n      dup4\n      0xffffffffffffffffffffffffffffffffffffffff\n      and\n      mul\n      or\n      swap1\n      sstore\n      pop\n        /* \"Campaign.sol\":1706:1711  false */\n      0x00\n        /* \"Campaign.sol\":1684:1694  newRequest */\n      dup2\n        /* \"Campaign.sol\":1684:1703  newRequest.complete */\n      0x02\n      add\n      0x14\n        /* \"Campaign.sol\":1684:1711  newRequest.complete = false */\n      0x0100\n      exp\n      dup2\n      sload\n      dup2\n      0xff\n      mul\n      not\n      and\n      swap1\n      dup4\n      iszero\n      iszero\n      mul\n      or\n      swap1\n      sstore\n      pop\n        /* \"Campaign.sol\":1749:1750  0 */\n      0x00\n        /* \"Campaign.sol\":1721:1731  newRequest */\n      dup2\n        /* \"Campaign.sol\":1721:1746  newRequest.approvalsCount */\n      0x03\n      add\n        /* \"Campaign.sol\":1721:1750  newRequest.approvalsCount = 0 */\n      dup2\n      swap1\n      sstore\n      pop\n        /* \"Campaign.sol\":1498:1757  {... */\n      pop\n        /* \"Campaign.sol\":1399:1757  function createRequest(string memory description, uint value, address recipient) public restricted {... */\n      pop\n      pop\n      pop\n      jump\t// out\n        /* \"Campaign.sol\":908:939  uint public minimumContribution */\n    tag_53:\n      sload(0x02)\n      dup2\n      jump\t// out\n        /* \"Campaign.sol\":1233:1393  function contribute() public payable {... */\n    tag_56:\n        /* \"Campaign.sol\":1301:1320  minimumContribution */\n      sload(0x02)\n        /* \"Campaign.sol\":1288:1297  msg.value */\n      callvalue\n        /* \"Campaign.sol\":1288:1320  msg.value >= minimumContribution */\n      lt\n      iszero\n        /* \"Campaign.sol\":1280:1321  require(msg.value >= minimumContribution) */\n      tag_92\n      jumpi\n      0x00\n      dup1\n      revert\n    tag_92:\n        /* \"Campaign.sol\":1356:1360  true */\n      0x01\n        /* \"Campaign.sol\":1332:1341  approvers */\n      0x03\n        /* \"Campaign.sol\":1332:1353  approvers[msg.sender] */\n      0x00\n        /* \"Campaign.sol\":1342:1352  msg.sender */\n      caller\n        /* \"Campaign.sol\":1332:1353  approvers[msg.sender] */\n      0xffffffffffffffffffffffffffffffffffffffff\n      and\n      0xffffffffffffffffffffffffffffffffffffffff\n      and\n      dup2\n      mstore\n      0x20\n      add\n      swap1\n      dup2\n      mstore\n      0x20\n      add\n      0x00\n      keccak256\n      0x00\n        /* \"Campaign.sol\":1332:1360  approvers[msg.sender] = true */\n      0x0100\n      exp\n      dup2\n      sload\n      dup2\n      0xff\n      mul\n      not\n      and\n      swap1\n      dup4\n      iszero\n      iszero\n      mul\n      or\n      swap1\n      sstore\n      pop\n        /* \"Campaign.sol\":1370:1384  approversCount */\n      0x04\n      0x00\n        /* \"Campaign.sol\":1370:1386  approversCount++ */\n      dup2\n      sload\n      dup1\n      swap3\n      swap2\n      swap1\n      tag_93\n      swap1\n      tag_94\n      jump\t// in\n    tag_93:\n      swap2\n      swap1\n      pop\n      sstore\n      pop\n        /* \"Campaign.sol\":1233:1393  function contribute() public payable {... */\n      jump\t// out\n        /* \"Campaign.sol\":1763:2059  function approveRequest(uint index) public {... */\n    tag_60:\n        /* \"Campaign.sol\":1816:1845  Request storage targetRequest */\n      0x00\n        /* \"Campaign.sol\":1848:1856  requests */\n      dup1\n        /* \"Campaign.sol\":1857:1862  index */\n      dup3\n        /* \"Campaign.sol\":1848:1863  requests[index] */\n      dup2\n      sload\n      dup2\n      lt\n      tag_96\n      jumpi\n      tag_97\n      tag_66\n      jump\t// in\n    tag_97:\n    tag_96:\n      swap1\n      0x00\n      mstore\n      keccak256(0x00, 0x20)\n      swap1\n      0x05\n      mul\n      add\n        /* \"Campaign.sol\":1816:1863  Request storage targetRequest = requests[index] */\n      swap1\n      pop\n        /* \"Campaign.sol\":1882:1891  approvers */\n      0x03\n        /* \"Campaign.sol\":1882:1903  approvers[msg.sender] */\n      0x00\n        /* \"Campaign.sol\":1892:1902  msg.sender */\n      caller\n        /* \"Campaign.sol\":1882:1903  approvers[msg.sender] */\n      0xffffffffffffffffffffffffffffffffffffffff\n      and\n      0xffffffffffffffffffffffffffffffffffffffff\n      and\n      dup2\n      mstore\n      0x20\n      add\n      swap1\n      dup2\n      mstore\n      0x20\n      add\n      0x00\n      keccak256\n      0x00\n      swap1\n      sload\n      swap1\n      0x0100\n      exp\n      swap1\n      div\n      0xff\n      and\n        /* \"Campaign.sol\":1874:1904  require(approvers[msg.sender]) */\n      tag_99\n      jumpi\n      0x00\n      dup1\n      revert\n    tag_99:\n        /* \"Campaign.sol\":1923:1936  targetRequest */\n      dup1\n        /* \"Campaign.sol\":1923:1946  targetRequest.approvals */\n      0x04\n      add\n        /* \"Campaign.sol\":1923:1958  targetRequest.approvals[msg.sender] */\n      0x00\n        /* \"Campaign.sol\":1947:1957  msg.sender */\n      caller\n        /* \"Campaign.sol\":1923:1958  targetRequest.approvals[msg.sender] */\n      0xffffffffffffffffffffffffffffffffffffffff\n      and\n      0xffffffffffffffffffffffffffffffffffffffff\n      and\n      dup2\n      mstore\n      0x20\n      add\n      swap1\n      dup2\n      mstore\n      0x20\n      add\n      0x00\n      keccak256\n      0x00\n      swap1\n      sload\n      swap1\n      0x0100\n      exp\n      swap1\n      div\n      0xff\n      and\n        /* \"Campaign.sol\":1922:1958  !targetRequest.approvals[msg.sender] */\n      iszero\n        /* \"Campaign.sol\":1914:1959  require(!targetRequest.approvals[msg.sender]) */\n      tag_100\n      jumpi\n      0x00\n      dup1\n      revert\n    tag_100:\n        /* \"Campaign.sol\":2008:2012  true */\n      0x01\n        /* \"Campaign.sol\":1970:1983  targetRequest */\n      dup2\n        /* \"Campaign.sol\":1970:1993  targetRequest.approvals */\n      0x04\n      add\n        /* \"Campaign.sol\":1970:2005  targetRequest.approvals[msg.sender] */\n      0x00\n        /* \"Campaign.sol\":1994:2004  msg.sender */\n      caller\n        /* \"Campaign.sol\":1970:2005  targetRequest.approvals[msg.sender] */\n      0xffffffffffffffffffffffffffffffffffffffff\n      and\n      0xffffffffffffffffffffffffffffffffffffffff\n      and\n      dup2\n      mstore\n      0x20\n      add\n      swap1\n      dup2\n      mstore\n      0x20\n      add\n      0x00\n      keccak256\n      0x00\n        /* \"Campaign.sol\":1970:2012  targetRequest.approvals[msg.sender] = true */\n      0x0100\n      exp\n      dup2\n      sload\n      dup2\n      0xff\n      mul\n      not\n      and\n      swap1\n      dup4\n      iszero\n      iszero\n      mul\n      or\n      swap1\n      sstore\n      pop\n        /* \"Campaign.sol\":2022:2035  targetRequest */\n      dup1\n        /* \"Campaign.sol\":2022:2050  targetRequest.approvalsCount */\n      0x03\n      add\n      0x00\n        /* \"Campaign.sol\":2022:2052  targetRequest.approvalsCount++ */\n      dup2\n      sload\n      dup1\n      swap3\n      swap2\n      swap1\n      tag_101\n      swap1\n      tag_94\n      jump\t// in\n    tag_101:\n      swap2\n      swap1\n      pop\n      sstore\n      pop\n        /* \"Campaign.sol\":1806:2059  {... */\n      pop\n        /* \"Campaign.sol\":1763:2059  function approveRequest(uint index) public {... */\n      pop\n      jump\t// out\n    tag_75:\n      mload(0x40)\n      dup1\n      0xa0\n      add\n      0x40\n      mstore\n      dup1\n      and(0xffffffffffffffffffffffffffffffffffffffff, 0x00)\n      dup2\n      mstore\n      0x20\n      add\n      0x00\n      dup2\n      mstore\n      0x20\n      add\n      0x00\n      dup2\n      mstore\n      0x20\n      add\n      0x00\n      dup2\n      mstore\n      0x20\n      add\n      0x00\n      dup2\n      mstore\n      pop\n      swap1\n      jump\t// out\n        /* \"#utility.yul\":7:82   */\n    tag_102:\n        /* \"#utility.yul\":40:46   */\n      0x00\n        /* \"#utility.yul\":73:75   */\n      0x40\n        /* \"#utility.yul\":67:76   */\n      mload\n        /* \"#utility.yul\":57:76   */\n      swap1\n      pop\n        /* \"#utility.yul\":7:82   */\n      swap1\n      jump\t// out\n        /* \"#utility.yul\":88:205   */\n    tag_103:\n        /* \"#utility.yul\":197:198   */\n      0x00\n        /* \"#utility.yul\":194:195   */\n      dup1\n        /* \"#utility.yul\":187:199   */\n      revert\n        /* \"#utility.yul\":211:328   */\n    tag_104:\n        /* \"#utility.yul\":320:321   */\n      0x00\n        /* \"#utility.yul\":317:318   */\n      dup1\n        /* \"#utility.yul\":310:322   */\n      revert\n        /* \"#utility.yul\":334:411   */\n    tag_105:\n        /* \"#utility.yul\":371:378   */\n      0x00\n        /* \"#utility.yul\":400:405   */\n      dup2\n        /* \"#utility.yul\":389:405   */\n      swap1\n      pop\n        /* \"#utility.yul\":334:411   */\n      swap2\n      swap1\n      pop\n      jump\t// out\n        /* \"#utility.yul\":417:539   */\n    tag_106:\n        /* \"#utility.yul\":490:514   */\n      tag_157\n        /* \"#utility.yul\":508:513   */\n      dup2\n        /* \"#utility.yul\":490:514   */\n      tag_105\n      jump\t// in\n    tag_157:\n        /* \"#utility.yul\":483:488   */\n      dup2\n        /* \"#utility.yul\":480:515   */\n      eq\n        /* \"#utility.yul\":470:533   */\n      tag_158\n      jumpi\n        /* \"#utility.yul\":529:530   */\n      0x00\n        /* \"#utility.yul\":526:527   */\n      dup1\n        /* \"#utility.yul\":519:531   */\n      revert\n        /* \"#utility.yul\":470:533   */\n    tag_158:\n        /* \"#utility.yul\":417:539   */\n      pop\n      jump\t// out\n        /* \"#utility.yul\":545:684   */\n    tag_107:\n        /* \"#utility.yul\":591:596   */\n      0x00\n        /* \"#utility.yul\":629:635   */\n      dup2\n        /* \"#utility.yul\":616:636   */\n      calldataload\n        /* \"#utility.yul\":607:636   */\n      swap1\n      pop\n        /* \"#utility.yul\":645:678   */\n      tag_160\n        /* \"#utility.yul\":672:677   */\n      dup2\n        /* \"#utility.yul\":645:678   */\n      tag_106\n      jump\t// in\n    tag_160:\n        /* \"#utility.yul\":545:684   */\n      swap3\n      swap2\n      pop\n      pop\n      jump\t// out\n        /* \"#utility.yul\":690:1019   */\n    tag_16:\n        /* \"#utility.yul\":749:755   */\n      0x00\n        /* \"#utility.yul\":798:800   */\n      0x20\n        /* \"#utility.yul\":786:795   */\n      dup3\n        /* \"#utility.yul\":777:784   */\n      dup5\n        /* \"#utility.yul\":773:796   */\n      sub\n        /* \"#utility.yul\":769:801   */\n      slt\n        /* \"#utility.yul\":766:885   */\n      iszero\n      tag_162\n      jumpi\n        /* \"#utility.yul\":804:883   */\n      tag_163\n      tag_103\n      jump\t// in\n    tag_163:\n        /* \"#utility.yul\":766:885   */\n    tag_162:\n        /* \"#utility.yul\":924:925   */\n      0x00\n        /* \"#utility.yul\":949:1002   */\n      tag_164\n        /* \"#utility.yul\":994:1001   */\n      dup5\n        /* \"#utility.yul\":985:991   */\n      dup3\n        /* \"#utility.yul\":974:983   */\n      dup6\n        /* \"#utility.yul\":970:992   */\n      add\n        /* \"#utility.yul\":949:1002   */\n      tag_107\n      jump\t// in\n    tag_164:\n        /* \"#utility.yul\":939:1002   */\n      swap2\n      pop\n        /* \"#utility.yul\":895:1012   */\n      pop\n        /* \"#utility.yul\":690:1019   */\n      swap3\n      swap2\n      pop\n      pop\n      jump\t// out\n        /* \"#utility.yul\":1025:1151   */\n    tag_108:\n        /* \"#utility.yul\":1062:1069   */\n      0x00\n        /* \"#utility.yul\":1102:1144   */\n      0xffffffffffffffffffffffffffffffffffffffff\n        /* \"#utility.yul\":1095:1100   */\n      dup3\n        /* \"#utility.yul\":1091:1145   */\n      and\n        /* \"#utility.yul\":1080:1145   */\n      swap1\n      pop\n        /* \"#utility.yul\":1025:1151   */\n      swap2\n      swap1\n      pop\n      jump\t// out\n        /* \"#utility.yul\":1157:1253   */\n    tag_109:\n        /* \"#utility.yul\":1194:1201   */\n      0x00\n        /* \"#utility.yul\":1223:1247   */\n      tag_167\n        /* \"#utility.yul\":1241:1246   */\n      dup3\n        /* \"#utility.yul\":1223:1247   */\n      tag_108\n      jump\t// in\n    tag_167:\n        /* \"#utility.yul\":1212:1247   */\n      swap1\n      pop\n        /* \"#utility.yul\":1157:1253   */\n      swap2\n      swap1\n      pop\n      jump\t// out\n        /* \"#utility.yul\":1259:1381   */\n    tag_110:\n        /* \"#utility.yul\":1332:1356   */\n      tag_169\n        /* \"#utility.yul\":1350:1355   */\n      dup2\n        /* \"#utility.yul\":1332:1356   */\n      tag_109\n      jump\t// in\n    tag_169:\n        /* \"#utility.yul\":1325:1330   */\n      dup2\n        /* \"#utility.yul\":1322:1357   */\n      eq\n        /* \"#utility.yul\":1312:1375   */\n      tag_170\n      jumpi\n        /* \"#utility.yul\":1371:1372   */\n      0x00\n        /* \"#utility.yul\":1368:1369   */\n      dup1\n        /* \"#utility.yul\":1361:1373   */\n      revert\n        /* \"#utility.yul\":1312:1375   */\n    tag_170:\n        /* \"#utility.yul\":1259:1381   */\n      pop\n      jump\t// out\n        /* \"#utility.yul\":1387:1526   */\n    tag_111:\n        /* \"#utility.yul\":1433:1438   */\n      0x00\n        /* \"#utility.yul\":1471:1477   */\n      dup2\n        /* \"#utility.yul\":1458:1478   */\n      calldataload\n        /* \"#utility.yul\":1449:1478   */\n      swap1\n      pop\n        /* \"#utility.yul\":1487:1520   */\n      tag_172\n        /* \"#utility.yul\":1514:1519   */\n      dup2\n        /* \"#utility.yul\":1487:1520   */\n      tag_110\n      jump\t// in\n    tag_172:\n        /* \"#utility.yul\":1387:1526   */\n      swap3\n      swap2\n      pop\n      pop\n      jump\t// out\n        /* \"#utility.yul\":1532:1861   */\n    tag_21:\n        /* \"#utility.yul\":1591:1597   */\n      0x00\n        /* \"#utility.yul\":1640:1642   */\n      0x20\n        /* \"#utility.yul\":1628:1637   */\n      dup3\n        /* \"#utility.yul\":1619:1626   */\n      dup5\n        /* \"#utility.yul\":1615:1638   */\n      sub\n        /* \"#utility.yul\":1611:1643   */\n      slt\n        /* \"#utility.yul\":1608:1727   */\n      iszero\n      tag_174\n      jumpi\n        /* \"#utility.yul\":1646:1725   */\n      tag_175\n      tag_103\n      jump\t// in\n    tag_175:\n        /* \"#utility.yul\":1608:1727   */\n    tag_174:\n        /* \"#utility.yul\":1766:1767   */\n      0x00\n        /* \"#utility.yul\":1791:1844   */\n      tag_176\n        /* \"#utility.yul\":1836:1843   */\n      dup5\n        /* \"#utility.yul\":1827:1833   */\n      dup3\n        /* \"#utility.yul\":1816:1825   */\n      dup6\n        /* \"#utility.yul\":1812:1834   */\n      add\n        /* \"#utility.yul\":1791:1844   */\n      tag_111\n      jump\t// in\n    tag_176:\n        /* \"#utility.yul\":1781:1844   */\n      swap2\n      pop\n        /* \"#utility.yul\":1737:1854   */\n      pop\n        /* \"#utility.yul\":1532:1861   */\n      swap3\n      swap2\n      pop\n      pop\n      jump\t// out\n        /* \"#utility.yul\":1867:1957   */\n    tag_112:\n        /* \"#utility.yul\":1901:1908   */\n      0x00\n        /* \"#utility.yul\":1944:1949   */\n      dup2\n        /* \"#utility.yul\":1937:1950   */\n      iszero\n        /* \"#utility.yul\":1930:1951   */\n      iszero\n        /* \"#utility.yul\":1919:1951   */\n      swap1\n      pop\n        /* \"#utility.yul\":1867:1957   */\n      swap2\n      swap1\n      pop\n      jump\t// out\n        /* \"#utility.yul\":1963:2072   */\n    tag_113:\n        /* \"#utility.yul\":2044:2065   */\n      tag_179\n        /* \"#utility.yul\":2059:2064   */\n      dup2\n        /* \"#utility.yul\":2044:2065   */\n      tag_112\n      jump\t// in\n    tag_179:\n        /* \"#utility.yul\":2039:2042   */\n      dup3\n        /* \"#utility.yul\":2032:2066   */\n      mstore\n        /* \"#utility.yul\":1963:2072   */\n      pop\n      pop\n      jump\t// out\n        /* \"#utility.yul\":2078:2288   */\n    tag_24:\n        /* \"#utility.yul\":2165:2169   */\n      0x00\n        /* \"#utility.yul\":2203:2205   */\n      0x20\n        /* \"#utility.yul\":2192:2201   */\n      dup3\n        /* \"#utility.yul\":2188:2206   */\n      add\n        /* \"#utility.yul\":2180:2206   */\n      swap1\n      pop\n        /* \"#utility.yul\":2216:2281   */\n      tag_181\n        /* \"#utility.yul\":2278:2279   */\n      0x00\n        /* \"#utility.yul\":2267:2276   */\n      dup4\n        /* \"#utility.yul\":2263:2280   */\n      add\n        /* \"#utility.yul\":2254:2260   */\n      dup5\n        /* \"#utility.yul\":2216:2281   */\n      tag_113\n      jump\t// in\n    tag_181:\n        /* \"#utility.yul\":2078:2288   */\n      swap3\n      swap2\n      pop\n      pop\n      jump\t// out\n        /* \"#utility.yul\":2294:2402   */\n    tag_114:\n        /* \"#utility.yul\":2371:2395   */\n      tag_183\n        /* \"#utility.yul\":2389:2394   */\n      dup2\n        /* \"#utility.yul\":2371:2395   */\n      tag_109\n      jump\t// in\n    tag_183:\n        /* \"#utility.yul\":2366:2369   */\n      dup3\n        /* \"#utility.yul\":2359:2396   */\n      mstore\n        /* \"#utility.yul\":2294:2402   */\n      pop\n      pop\n      jump\t// out\n        /* \"#utility.yul\":2408:2516   */\n    tag_115:\n        /* \"#utility.yul\":2485:2509   */\n      tag_185\n        /* \"#utility.yul\":2503:2508   */\n      dup2\n        /* \"#utility.yul\":2485:2509   */\n      tag_105\n      jump\t// in\n    tag_185:\n        /* \"#utility.yul\":2480:2483   */\n      dup3\n        /* \"#utility.yul\":2473:2510   */\n      mstore\n        /* \"#utility.yul\":2408:2516   */\n      pop\n      pop\n      jump\t// out\n        /* \"#utility.yul\":2580:3645   */\n    tag_116:\n        /* \"#utility.yul\":2723:2727   */\n      0xa0\n        /* \"#utility.yul\":2718:2721   */\n      dup3\n        /* \"#utility.yul\":2714:2728   */\n      add\n        /* \"#utility.yul\":2813:2817   */\n      0x00\n        /* \"#utility.yul\":2806:2811   */\n      dup3\n        /* \"#utility.yul\":2802:2818   */\n      add\n        /* \"#utility.yul\":2796:2819   */\n      mload\n        /* \"#utility.yul\":2832:2895   */\n      tag_187\n        /* \"#utility.yul\":2889:2893   */\n      0x00\n        /* \"#utility.yul\":2884:2887   */\n      dup6\n        /* \"#utility.yul\":2880:2894   */\n      add\n        /* \"#utility.yul\":2866:2878   */\n      dup3\n        /* \"#utility.yul\":2832:2895   */\n      tag_114\n      jump\t// in\n    tag_187:\n        /* \"#utility.yul\":2738:2905   */\n      pop\n        /* \"#utility.yul\":3002:3006   */\n      0x20\n        /* \"#utility.yul\":2995:3000   */\n      dup3\n        /* \"#utility.yul\":2991:3007   */\n      add\n        /* \"#utility.yul\":2985:3008   */\n      mload\n        /* \"#utility.yul\":3021:3084   */\n      tag_188\n        /* \"#utility.yul\":3078:3082   */\n      0x20\n        /* \"#utility.yul\":3073:3076   */\n      dup6\n        /* \"#utility.yul\":3069:3083   */\n      add\n        /* \"#utility.yul\":3055:3067   */\n      dup3\n        /* \"#utility.yul\":3021:3084   */\n      tag_115\n      jump\t// in\n    tag_188:\n        /* \"#utility.yul\":2915:3094   */\n      pop\n        /* \"#utility.yul\":3185:3189   */\n      0x40\n        /* \"#utility.yul\":3178:3183   */\n      dup3\n        /* \"#utility.yul\":3174:3190   */\n      add\n        /* \"#utility.yul\":3168:3191   */\n      mload\n        /* \"#utility.yul\":3204:3267   */\n      tag_189\n        /* \"#utility.yul\":3261:3265   */\n      0x40\n        /* \"#utility.yul\":3256:3259   */\n      dup6\n        /* \"#utility.yul\":3252:3266   */\n      add\n        /* \"#utility.yul\":3238:3250   */\n      dup3\n        /* \"#utility.yul\":3204:3267   */\n      tag_115\n      jump\t// in\n    tag_189:\n        /* \"#utility.yul\":3104:3277   */\n      pop\n        /* \"#utility.yul\":3369:3373   */\n      0x60\n        /* \"#utility.yul\":3362:3367   */\n      dup3\n        /* \"#utility.yul\":3358:3374   */\n      add\n        /* \"#utility.yul\":3352:3375   */\n      mload\n        /* \"#utility.yul\":3388:3451   */\n      tag_190\n        /* \"#utility.yul\":3445:3449   */\n      0x60\n        /* \"#utility.yul\":3440:3443   */\n      dup6\n        /* \"#utility.yul\":3436:3450   */\n      add\n        /* \"#utility.yul\":3422:3434   */\n      dup3\n        /* \"#utility.yul\":3388:3451   */\n      tag_115\n      jump\t// in\n    tag_190:\n        /* \"#utility.yul\":3287:3461   */\n      pop\n        /* \"#utility.yul\":3546:3550   */\n      0x80\n        /* \"#utility.yul\":3539:3544   */\n      dup3\n        /* \"#utility.yul\":3535:3551   */\n      add\n        /* \"#utility.yul\":3529:3552   */\n      mload\n        /* \"#utility.yul\":3565:3628   */\n      tag_191\n        /* \"#utility.yul\":3622:3626   */\n      0x80\n        /* \"#utility.yul\":3617:3620   */\n      dup6\n        /* \"#utility.yul\":3613:3627   */\n      add\n        /* \"#utility.yul\":3599:3611   */\n      dup3\n        /* \"#utility.yul\":3565:3628   */\n      tag_115\n      jump\t// in\n    tag_191:\n        /* \"#utility.yul\":3471:3638   */\n      pop\n        /* \"#utility.yul\":2692:3645   */\n      pop\n        /* \"#utility.yul\":2580:3645   */\n      pop\n      pop\n      jump\t// out\n        /* \"#utility.yul\":3651:3966   */\n    tag_29:\n        /* \"#utility.yul\":3790:3794   */\n      0x00\n        /* \"#utility.yul\":3828:3831   */\n      0xa0\n        /* \"#utility.yul\":3817:3826   */\n      dup3\n        /* \"#utility.yul\":3813:3832   */\n      add\n        /* \"#utility.yul\":3805:3832   */\n      swap1\n      pop\n        /* \"#utility.yul\":3842:3959   */\n      tag_193\n        /* \"#utility.yul\":3956:3957   */\n      0x00\n        /* \"#utility.yul\":3945:3954   */\n      dup4\n        /* \"#utility.yul\":3941:3958   */\n      add\n        /* \"#utility.yul\":3932:3938   */\n      dup5\n        /* \"#utility.yul\":3842:3959   */\n      tag_116\n      jump\t// in\n    tag_193:\n        /* \"#utility.yul\":3651:3966   */\n      swap3\n      swap2\n      pop\n      pop\n      jump\t// out\n        /* \"#utility.yul\":3972:4090   */\n    tag_117:\n        /* \"#utility.yul\":4059:4083   */\n      tag_195\n        /* \"#utility.yul\":4077:4082   */\n      dup2\n        /* \"#utility.yul\":4059:4083   */\n      tag_109\n      jump\t// in\n    tag_195:\n        /* \"#utility.yul\":4054:4057   */\n      dup3\n        /* \"#utility.yul\":4047:4084   */\n      mstore\n        /* \"#utility.yul\":3972:4090   */\n      pop\n      pop\n      jump\t// out\n        /* \"#utility.yul\":4096:4318   */\n    tag_34:\n        /* \"#utility.yul\":4189:4193   */\n      0x00\n        /* \"#utility.yul\":4227:4229   */\n      0x20\n        /* \"#utility.yul\":4216:4225   */\n      dup3\n        /* \"#utility.yul\":4212:4230   */\n      add\n        /* \"#utility.yul\":4204:4230   */\n      swap1\n      pop\n        /* \"#utility.yul\":4240:4311   */\n      tag_197\n        /* \"#utility.yul\":4308:4309   */\n      0x00\n        /* \"#utility.yul\":4297:4306   */\n      dup4\n        /* \"#utility.yul\":4293:4310   */\n      add\n        /* \"#utility.yul\":4284:4290   */\n      dup5\n        /* \"#utility.yul\":4240:4311   */\n      tag_117\n      jump\t// in\n    tag_197:\n        /* \"#utility.yul\":4096:4318   */\n      swap3\n      swap2\n      pop\n      pop\n      jump\t// out\n        /* \"#utility.yul\":4324:4423   */\n    tag_118:\n        /* \"#utility.yul\":4376:4382   */\n      0x00\n        /* \"#utility.yul\":4410:4415   */\n      dup2\n        /* \"#utility.yul\":4404:4416   */\n      mload\n        /* \"#utility.yul\":4394:4416   */\n      swap1\n      pop\n        /* \"#utility.yul\":4324:4423   */\n      swap2\n      swap1\n      pop\n      jump\t// out\n        /* \"#utility.yul\":4429:4598   */\n    tag_119:\n        /* \"#utility.yul\":4513:4524   */\n      0x00\n        /* \"#utility.yul\":4547:4553   */\n      dup3\n        /* \"#utility.yul\":4542:4545   */\n      dup3\n        /* \"#utility.yul\":4535:4554   */\n      mstore\n        /* \"#utility.yul\":4587:4591   */\n      0x20\n        /* \"#utility.yul\":4582:4585   */\n      dup3\n        /* \"#utility.yul\":4578:4592   */\n      add\n        /* \"#utility.yul\":4563:4592   */\n      swap1\n      pop\n        /* \"#utility.yul\":4429:4598   */\n      swap3\n      swap2\n      pop\n      pop\n      jump\t// out\n        /* \"#utility.yul\":4604:4850   */\n    tag_120:\n        /* \"#utility.yul\":4685:4686   */\n      0x00\n        /* \"#utility.yul\":4695:4808   */\n    tag_201:\n        /* \"#utility.yul\":4709:4715   */\n      dup4\n        /* \"#utility.yul\":4706:4707   */\n      dup2\n        /* \"#utility.yul\":4703:4716   */\n      lt\n        /* \"#utility.yul\":4695:4808   */\n      iszero\n      tag_203\n      jumpi\n        /* \"#utility.yul\":4794:4795   */\n      dup1\n        /* \"#utility.yul\":4789:4792   */\n      dup3\n        /* \"#utility.yul\":4785:4796   */\n      add\n        /* \"#utility.yul\":4779:4797   */\n      mload\n        /* \"#utility.yul\":4775:4776   */\n      dup2\n        /* \"#utility.yul\":4770:4773   */\n      dup5\n        /* \"#utility.yul\":4766:4777   */\n      add\n        /* \"#utility.yul\":4759:4798   */\n      mstore\n        /* \"#utility.yul\":4731:4733   */\n      0x20\n        /* \"#utility.yul\":4728:4729   */\n      dup2\n        /* \"#utility.yul\":4724:4734   */\n      add\n        /* \"#utility.yul\":4719:4734   */\n      swap1\n      pop\n        /* \"#utility.yul\":4695:4808   */\n      jump(tag_201)\n    tag_203:\n        /* \"#utility.yul\":4842:4843   */\n      0x00\n        /* \"#utility.yul\":4833:4839   */\n      dup5\n        /* \"#utility.yul\":4828:4831   */\n      dup5\n        /* \"#utility.yul\":4824:4840   */\n      add\n        /* \"#utility.yul\":4817:4844   */\n      mstore\n        /* \"#utility.yul\":4666:4850   */\n      pop\n        /* \"#utility.yul\":4604:4850   */\n      pop\n      pop\n      pop\n      jump\t// out\n        /* \"#utility.yul\":4856:4958   */\n    tag_121:\n        /* \"#utility.yul\":4897:4903   */\n      0x00\n        /* \"#utility.yul\":4948:4950   */\n      0x1f\n        /* \"#utility.yul\":4944:4951   */\n      not\n        /* \"#utility.yul\":4939:4941   */\n      0x1f\n        /* \"#utility.yul\":4932:4937   */\n      dup4\n        /* \"#utility.yul\":4928:4942   */\n      add\n        /* \"#utility.yul\":4924:4952   */\n      and\n        /* \"#utility.yul\":4914:4952   */\n      swap1\n      pop\n        /* \"#utility.yul\":4856:4958   */\n      swap2\n      swap1\n      pop\n      jump\t// out\n        /* \"#utility.yul\":4964:5341   */\n    tag_122:\n        /* \"#utility.yul\":5052:5055   */\n      0x00\n        /* \"#utility.yul\":5080:5119   */\n      tag_206\n        /* \"#utility.yul\":5113:5118   */\n      dup3\n        /* \"#utility.yul\":5080:5119   */\n      tag_118\n      jump\t// in\n    tag_206:\n        /* \"#utility.yul\":5135:5206   */\n      tag_207\n        /* \"#utility.yul\":5199:5205   */\n      dup2\n        /* \"#utility.yul\":5194:5197   */\n      dup6\n        /* \"#utility.yul\":5135:5206   */\n      tag_119\n      jump\t// in\n    tag_207:\n        /* \"#utility.yul\":5128:5206   */\n      swap4\n      pop\n        /* \"#utility.yul\":5215:5280   */\n      tag_208\n        /* \"#utility.yul\":5273:5279   */\n      dup2\n        /* \"#utility.yul\":5268:5271   */\n      dup6\n        /* \"#utility.yul\":5261:5265   */\n      0x20\n        /* \"#utility.yul\":5254:5259   */\n      dup7\n        /* \"#utility.yul\":5250:5266   */\n      add\n        /* \"#utility.yul\":5215:5280   */\n      tag_120\n      jump\t// in\n    tag_208:\n        /* \"#utility.yul\":5305:5334   */\n      tag_209\n        /* \"#utility.yul\":5327:5333   */\n      dup2\n        /* \"#utility.yul\":5305:5334   */\n      tag_121\n      jump\t// in\n    tag_209:\n        /* \"#utility.yul\":5300:5303   */\n      dup5\n        /* \"#utility.yul\":5296:5335   */\n      add\n        /* \"#utility.yul\":5289:5335   */\n      swap2\n      pop\n        /* \"#utility.yul\":5056:5341   */\n      pop\n        /* \"#utility.yul\":4964:5341   */\n      swap3\n      swap2\n      pop\n      pop\n      jump\t// out\n        /* \"#utility.yul\":5347:5465   */\n    tag_123:\n        /* \"#utility.yul\":5434:5458   */\n      tag_211\n        /* \"#utility.yul\":5452:5457   */\n      dup2\n        /* \"#utility.yul\":5434:5458   */\n      tag_105\n      jump\t// in\n    tag_211:\n        /* \"#utility.yul\":5429:5432   */\n      dup3\n        /* \"#utility.yul\":5422:5459   */\n      mstore\n        /* \"#utility.yul\":5347:5465   */\n      pop\n      pop\n      jump\t// out\n        /* \"#utility.yul\":5471:6214   */\n    tag_40:\n        /* \"#utility.yul\":5690:5694   */\n      0x00\n        /* \"#utility.yul\":5728:5731   */\n      0xa0\n        /* \"#utility.yul\":5717:5726   */\n      dup3\n        /* \"#utility.yul\":5713:5732   */\n      add\n        /* \"#utility.yul\":5705:5732   */\n      swap1\n      pop\n        /* \"#utility.yul\":5778:5787   */\n      dup2\n        /* \"#utility.yul\":5772:5776   */\n      dup2\n        /* \"#utility.yul\":5768:5788   */\n      sub\n        /* \"#utility.yul\":5764:5765   */\n      0x00\n        /* \"#utility.yul\":5753:5762   */\n      dup4\n        /* \"#utility.yul\":5749:5766   */\n      add\n        /* \"#utility.yul\":5742:5789   */\n      mstore\n        /* \"#utility.yul\":5806:5884   */\n      tag_213\n        /* \"#utility.yul\":5879:5883   */\n      dup2\n        /* \"#utility.yul\":5870:5876   */\n      dup9\n        /* \"#utility.yul\":5806:5884   */\n      tag_122\n      jump\t// in\n    tag_213:\n        /* \"#utility.yul\":5798:5884   */\n      swap1\n      pop\n        /* \"#utility.yul\":5894:5966   */\n      tag_214\n        /* \"#utility.yul\":5962:5964   */\n      0x20\n        /* \"#utility.yul\":5951:5960   */\n      dup4\n        /* \"#utility.yul\":5947:5965   */\n      add\n        /* \"#utility.yul\":5938:5944   */\n      dup8\n        /* \"#utility.yul\":5894:5966   */\n      tag_123\n      jump\t// in\n    tag_214:\n        /* \"#utility.yul\":5976:6048   */\n      tag_215\n        /* \"#utility.yul\":6044:6046   */\n      0x40\n        /* \"#utility.yul\":6033:6042   */\n      dup4\n        /* \"#utility.yul\":6029:6047   */\n      add\n        /* \"#utility.yul\":6020:6026   */\n      dup7\n        /* \"#utility.yul\":5976:6048   */\n      tag_117\n      jump\t// in\n    tag_215:\n        /* \"#utility.yul\":6058:6124   */\n      tag_216\n        /* \"#utility.yul\":6120:6122   */\n      0x60\n        /* \"#utility.yul\":6109:6118   */\n      dup4\n        /* \"#utility.yul\":6105:6123   */\n      add\n        /* \"#utility.yul\":6096:6102   */\n      dup6\n        /* \"#utility.yul\":6058:6124   */\n      tag_113\n      jump\t// in\n    tag_216:\n        /* \"#utility.yul\":6134:6207   */\n      tag_217\n        /* \"#utility.yul\":6202:6205   */\n      0x80\n        /* \"#utility.yul\":6191:6200   */\n      dup4\n        /* \"#utility.yul\":6187:6206   */\n      add\n        /* \"#utility.yul\":6178:6184   */\n      dup5\n        /* \"#utility.yul\":6134:6207   */\n      tag_123\n      jump\t// in\n    tag_217:\n        /* \"#utility.yul\":5471:6214   */\n      swap7\n      swap6\n      pop\n      pop\n      pop\n      pop\n      pop\n      pop\n      jump\t// out\n        /* \"#utility.yul\":6220:6442   */\n    tag_45:\n        /* \"#utility.yul\":6313:6317   */\n      0x00\n        /* \"#utility.yul\":6351:6353   */\n      0x20\n        /* \"#utility.yul\":6340:6349   */\n      dup3\n        /* \"#utility.yul\":6336:6354   */\n      add\n        /* \"#utility.yul\":6328:6354   */\n      swap1\n      pop\n        /* \"#utility.yul\":6364:6435   */\n      tag_219\n        /* \"#utility.yul\":6432:6433   */\n      0x00\n        /* \"#utility.yul\":6421:6430   */\n      dup4\n        /* \"#utility.yul\":6417:6434   */\n      add\n        /* \"#utility.yul\":6408:6414   */\n      dup5\n        /* \"#utility.yul\":6364:6435   */\n      tag_123\n      jump\t// in\n    tag_219:\n        /* \"#utility.yul\":6220:6442   */\n      swap3\n      swap2\n      pop\n      pop\n      jump\t// out\n        /* \"#utility.yul\":6448:6565   */\n    tag_124:\n        /* \"#utility.yul\":6557:6558   */\n      0x00\n        /* \"#utility.yul\":6554:6555   */\n      dup1\n        /* \"#utility.yul\":6547:6559   */\n      revert\n        /* \"#utility.yul\":6571:6688   */\n    tag_125:\n        /* \"#utility.yul\":6680:6681   */\n      0x00\n        /* \"#utility.yul\":6677:6678   */\n      dup1\n        /* \"#utility.yul\":6670:6682   */\n      revert\n        /* \"#utility.yul\":6694:6874   */\n    tag_126:\n        /* \"#utility.yul\":6742:6819   */\n      0x4e487b7100000000000000000000000000000000000000000000000000000000\n        /* \"#utility.yul\":6739:6740   */\n      0x00\n        /* \"#utility.yul\":6732:6820   */\n      mstore\n        /* \"#utility.yul\":6839:6843   */\n      0x41\n        /* \"#utility.yul\":6836:6837   */\n      0x04\n        /* \"#utility.yul\":6829:6844   */\n      mstore\n        /* \"#utility.yul\":6863:6867   */\n      0x24\n        /* \"#utility.yul\":6860:6861   */\n      0x00\n        /* \"#utility.yul\":6853:6868   */\n      revert\n        /* \"#utility.yul\":6880:7161   */\n    tag_127:\n        /* \"#utility.yul\":6963:6990   */\n      tag_224\n        /* \"#utility.yul\":6985:6989   */\n      dup3\n        /* \"#utility.yul\":6963:6990   */\n      tag_121\n      jump\t// in\n    tag_224:\n        /* \"#utility.yul\":6955:6961   */\n      dup2\n        /* \"#utility.yul\":6951:6991   */\n      add\n        /* \"#utility.yul\":7093:7099   */\n      dup2\n        /* \"#utility.yul\":7081:7091   */\n      dup2\n        /* \"#utility.yul\":7078:7100   */\n      lt\n        /* \"#utility.yul\":7057:7075   */\n      0xffffffffffffffff\n        /* \"#utility.yul\":7045:7055   */\n      dup3\n        /* \"#utility.yul\":7042:7076   */\n      gt\n        /* \"#utility.yul\":7039:7101   */\n      or\n        /* \"#utility.yul\":7036:7124   */\n      iszero\n      tag_225\n      jumpi\n        /* \"#utility.yul\":7104:7122   */\n      tag_226\n      tag_126\n      jump\t// in\n    tag_226:\n        /* \"#utility.yul\":7036:7124   */\n    tag_225:\n        /* \"#utility.yul\":7144:7154   */\n      dup1\n        /* \"#utility.yul\":7140:7142   */\n      0x40\n        /* \"#utility.yul\":7133:7155   */\n      mstore\n        /* \"#utility.yul\":6923:7161   */\n      pop\n        /* \"#utility.yul\":6880:7161   */\n      pop\n      pop\n      jump\t// out\n        /* \"#utility.yul\":7167:7296   */\n    tag_128:\n        /* \"#utility.yul\":7201:7207   */\n      0x00\n        /* \"#utility.yul\":7228:7248   */\n      tag_228\n      tag_102\n      jump\t// in\n    tag_228:\n        /* \"#utility.yul\":7218:7248   */\n      swap1\n      pop\n        /* \"#utility.yul\":7257:7290   */\n      tag_229\n        /* \"#utility.yul\":7285:7289   */\n      dup3\n        /* \"#utility.yul\":7277:7283   */\n      dup3\n        /* \"#utility.yul\":7257:7290   */\n      tag_127\n      jump\t// in\n    tag_229:\n        /* \"#utility.yul\":7167:7296   */\n      swap2\n      swap1\n      pop\n      jump\t// out\n        /* \"#utility.yul\":7302:7610   */\n    tag_129:\n        /* \"#utility.yul\":7364:7368   */\n      0x00\n        /* \"#utility.yul\":7454:7472   */\n      0xffffffffffffffff\n        /* \"#utility.yul\":7446:7452   */\n      dup3\n        /* \"#utility.yul\":7443:7473   */\n      gt\n        /* \"#utility.yul\":7440:7496   */\n      iszero\n      tag_231\n      jumpi\n        /* \"#utility.yul\":7476:7494   */\n      tag_232\n      tag_126\n      jump\t// in\n    tag_232:\n        /* \"#utility.yul\":7440:7496   */\n    tag_231:\n        /* \"#utility.yul\":7514:7543   */\n      tag_233\n        /* \"#utility.yul\":7536:7542   */\n      dup3\n        /* \"#utility.yul\":7514:7543   */\n      tag_121\n      jump\t// in\n    tag_233:\n        /* \"#utility.yul\":7506:7543   */\n      swap1\n      pop\n        /* \"#utility.yul\":7598:7602   */\n      0x20\n        /* \"#utility.yul\":7592:7596   */\n      dup2\n        /* \"#utility.yul\":7588:7603   */\n      add\n        /* \"#utility.yul\":7580:7603   */\n      swap1\n      pop\n        /* \"#utility.yul\":7302:7610   */\n      swap2\n      swap1\n      pop\n      jump\t// out\n        /* \"#utility.yul\":7616:7762   */\n    tag_130:\n        /* \"#utility.yul\":7713:7719   */\n      dup3\n        /* \"#utility.yul\":7708:7711   */\n      dup2\n        /* \"#utility.yul\":7703:7706   */\n      dup4\n        /* \"#utility.yul\":7690:7720   */\n      calldatacopy\n        /* \"#utility.yul\":7754:7755   */\n      0x00\n        /* \"#utility.yul\":7745:7751   */\n      dup4\n        /* \"#utility.yul\":7740:7743   */\n      dup4\n        /* \"#utility.yul\":7736:7752   */\n      add\n        /* \"#utility.yul\":7729:7756   */\n      mstore\n        /* \"#utility.yul\":7616:7762   */\n      pop\n      pop\n      pop\n      jump\t// out\n        /* \"#utility.yul\":7768:8193   */\n    tag_131:\n        /* \"#utility.yul\":7846:7851   */\n      0x00\n        /* \"#utility.yul\":7871:7937   */\n      tag_236\n        /* \"#utility.yul\":7887:7936   */\n      tag_237\n        /* \"#utility.yul\":7929:7935   */\n      dup5\n        /* \"#utility.yul\":7887:7936   */\n      tag_129\n      jump\t// in\n    tag_237:\n        /* \"#utility.yul\":7871:7937   */\n      tag_128\n      jump\t// in\n    tag_236:\n        /* \"#utility.yul\":7862:7937   */\n      swap1\n      pop\n        /* \"#utility.yul\":7960:7966   */\n      dup3\n        /* \"#utility.yul\":7953:7958   */\n      dup2\n        /* \"#utility.yul\":7946:7967   */\n      mstore\n        /* \"#utility.yul\":7998:8002   */\n      0x20\n        /* \"#utility.yul\":7991:7996   */\n      dup2\n        /* \"#utility.yul\":7987:8003   */\n      add\n        /* \"#utility.yul\":8036:8039   */\n      dup5\n        /* \"#utility.yul\":8027:8033   */\n      dup5\n        /* \"#utility.yul\":8022:8025   */\n      dup5\n        /* \"#utility.yul\":8018:8034   */\n      add\n        /* \"#utility.yul\":8015:8040   */\n      gt\n        /* \"#utility.yul\":8012:8124   */\n      iszero\n      tag_238\n      jumpi\n        /* \"#utility.yul\":8043:8122   */\n      tag_239\n      tag_125\n      jump\t// in\n    tag_239:\n        /* \"#utility.yul\":8012:8124   */\n    tag_238:\n        /* \"#utility.yul\":8133:8187   */\n      tag_240\n        /* \"#utility.yul\":8180:8186   */\n      dup5\n        /* \"#utility.yul\":8175:8178   */\n      dup3\n        /* \"#utility.yul\":8170:8173   */\n      dup6\n        /* \"#utility.yul\":8133:8187   */\n      tag_130\n      jump\t// in\n    tag_240:\n        /* \"#utility.yul\":7852:8193   */\n      pop\n        /* \"#utility.yul\":7768:8193   */\n      swap4\n      swap3\n      pop\n      pop\n      pop\n      jump\t// out\n        /* \"#utility.yul\":8213:8553   */\n    tag_132:\n        /* \"#utility.yul\":8269:8274   */\n      0x00\n        /* \"#utility.yul\":8318:8321   */\n      dup3\n        /* \"#utility.yul\":8311:8315   */\n      0x1f\n        /* \"#utility.yul\":8303:8309   */\n      dup4\n        /* \"#utility.yul\":8299:8316   */\n      add\n        /* \"#utility.yul\":8295:8322   */\n      slt\n        /* \"#utility.yul\":8285:8407   */\n      tag_242\n      jumpi\n        /* \"#utility.yul\":8326:8405   */\n      tag_243\n      tag_124\n      jump\t// in\n    tag_243:\n        /* \"#utility.yul\":8285:8407   */\n    tag_242:\n        /* \"#utility.yul\":8443:8449   */\n      dup2\n        /* \"#utility.yul\":8430:8450   */\n      calldataload\n        /* \"#utility.yul\":8468:8547   */\n      tag_244\n        /* \"#utility.yul\":8543:8546   */\n      dup5\n        /* \"#utility.yul\":8535:8541   */\n      dup3\n        /* \"#utility.yul\":8528:8532   */\n      0x20\n        /* \"#utility.yul\":8520:8526   */\n      dup7\n        /* \"#utility.yul\":8516:8533   */\n      add\n        /* \"#utility.yul\":8468:8547   */\n      tag_131\n      jump\t// in\n    tag_244:\n        /* \"#utility.yul\":8459:8547   */\n      swap2\n      pop\n        /* \"#utility.yul\":8275:8553   */\n      pop\n        /* \"#utility.yul\":8213:8553   */\n      swap3\n      swap2\n      pop\n      pop\n      jump\t// out\n        /* \"#utility.yul\":8559:9358   */\n    tag_49:\n        /* \"#utility.yul\":8646:8652   */\n      0x00\n        /* \"#utility.yul\":8654:8660   */\n      dup1\n        /* \"#utility.yul\":8662:8668   */\n      0x00\n        /* \"#utility.yul\":8711:8713   */\n      0x60\n        /* \"#utility.yul\":8699:8708   */\n      dup5\n        /* \"#utility.yul\":8690:8697   */\n      dup7\n        /* \"#utility.yul\":8686:8709   */\n      sub\n        /* \"#utility.yul\":8682:8714   */\n      slt\n        /* \"#utility.yul\":8679:8798   */\n      iszero\n      tag_246\n      jumpi\n        /* \"#utility.yul\":8717:8796   */\n      tag_247\n      tag_103\n      jump\t// in\n    tag_247:\n        /* \"#utility.yul\":8679:8798   */\n    tag_246:\n        /* \"#utility.yul\":8865:8866   */\n      0x00\n        /* \"#utility.yul\":8854:8863   */\n      dup5\n        /* \"#utility.yul\":8850:8867   */\n      add\n        /* \"#utility.yul\":8837:8868   */\n      calldataload\n        /* \"#utility.yul\":8895:8913   */\n      0xffffffffffffffff\n        /* \"#utility.yul\":8887:8893   */\n      dup2\n        /* \"#utility.yul\":8884:8914   */\n      gt\n        /* \"#utility.yul\":8881:8998   */\n      iszero\n      tag_248\n      jumpi\n        /* \"#utility.yul\":8917:8996   */\n      tag_249\n      tag_104\n      jump\t// in\n    tag_249:\n        /* \"#utility.yul\":8881:8998   */\n    tag_248:\n        /* \"#utility.yul\":9022:9085   */\n      tag_250\n        /* \"#utility.yul\":9077:9084   */\n      dup7\n        /* \"#utility.yul\":9068:9074   */\n      dup3\n        /* \"#utility.yul\":9057:9066   */\n      dup8\n        /* \"#utility.yul\":9053:9075   */\n      add\n        /* \"#utility.yul\":9022:9085   */\n      tag_132\n      jump\t// in\n    tag_250:\n        /* \"#utility.yul\":9012:9085   */\n      swap4\n      pop\n        /* \"#utility.yul\":8808:9095   */\n      pop\n        /* \"#utility.yul\":9134:9136   */\n      0x20\n        /* \"#utility.yul\":9160:9213   */\n      tag_251\n        /* \"#utility.yul\":9205:9212   */\n      dup7\n        /* \"#utility.yul\":9196:9202   */\n      dup3\n        /* \"#utility.yul\":9185:9194   */\n      dup8\n        /* \"#utility.yul\":9181:9203   */\n      add\n        /* \"#utility.yul\":9160:9213   */\n      tag_107\n      jump\t// in\n    tag_251:\n        /* \"#utility.yul\":9150:9213   */\n      swap3\n      pop\n        /* \"#utility.yul\":9105:9223   */\n      pop\n        /* \"#utility.yul\":9262:9264   */\n      0x40\n        /* \"#utility.yul\":9288:9341   */\n      tag_252\n        /* \"#utility.yul\":9333:9340   */\n      dup7\n        /* \"#utility.yul\":9324:9330   */\n      dup3\n        /* \"#utility.yul\":9313:9322   */\n      dup8\n        /* \"#utility.yul\":9309:9331   */\n      add\n        /* \"#utility.yul\":9288:9341   */\n      tag_111\n      jump\t// in\n    tag_252:\n        /* \"#utility.yul\":9278:9341   */\n      swap2\n      pop\n        /* \"#utility.yul\":9233:9351   */\n      pop\n        /* \"#utility.yul\":8559:9358   */\n      swap3\n      pop\n      swap3\n      pop\n      swap3\n      jump\t// out\n        /* \"#utility.yul\":9364:9544   */\n    tag_66:\n        /* \"#utility.yul\":9412:9489   */\n      0x4e487b7100000000000000000000000000000000000000000000000000000000\n        /* \"#utility.yul\":9409:9410   */\n      0x00\n        /* \"#utility.yul\":9402:9490   */\n      mstore\n        /* \"#utility.yul\":9509:9513   */\n      0x32\n        /* \"#utility.yul\":9506:9507   */\n      0x04\n        /* \"#utility.yul\":9499:9514   */\n      mstore\n        /* \"#utility.yul\":9533:9537   */\n      0x24\n        /* \"#utility.yul\":9530:9531   */\n      0x00\n        /* \"#utility.yul\":9523:9538   */\n      revert\n        /* \"#utility.yul\":9550:9730   */\n    tag_133:\n        /* \"#utility.yul\":9598:9675   */\n      0x4e487b7100000000000000000000000000000000000000000000000000000000\n        /* \"#utility.yul\":9595:9596   */\n      0x00\n        /* \"#utility.yul\":9588:9676   */\n      mstore\n        /* \"#utility.yul\":9695:9699   */\n      0x12\n        /* \"#utility.yul\":9692:9693   */\n      0x04\n        /* \"#utility.yul\":9685:9700   */\n      mstore\n        /* \"#utility.yul\":9719:9723   */\n      0x24\n        /* \"#utility.yul\":9716:9717   */\n      0x00\n        /* \"#utility.yul\":9709:9724   */\n      revert\n        /* \"#utility.yul\":9736:9916   */\n    tag_134:\n        /* \"#utility.yul\":9784:9861   */\n      0x4e487b7100000000000000000000000000000000000000000000000000000000\n        /* \"#utility.yul\":9781:9782   */\n      0x00\n        /* \"#utility.yul\":9774:9862   */\n      mstore\n        /* \"#utility.yul\":9881:9885   */\n      0x11\n        /* \"#utility.yul\":9878:9879   */\n      0x04\n        /* \"#utility.yul\":9871:9886   */\n      mstore\n        /* \"#utility.yul\":9905:9909   */\n      0x24\n        /* \"#utility.yul\":9902:9903   */\n      0x00\n        /* \"#utility.yul\":9895:9910   */\n      revert\n        /* \"#utility.yul\":9922:10107   */\n    tag_69:\n        /* \"#utility.yul\":9962:9963   */\n      0x00\n        /* \"#utility.yul\":9979:9999   */\n      tag_257\n        /* \"#utility.yul\":9997:9998   */\n      dup3\n        /* \"#utility.yul\":9979:9999   */\n      tag_105\n      jump\t// in\n    tag_257:\n        /* \"#utility.yul\":9974:9999   */\n      swap2\n      pop\n        /* \"#utility.yul\":10013:10033   */\n      tag_258\n        /* \"#utility.yul\":10031:10032   */\n      dup4\n        /* \"#utility.yul\":10013:10033   */\n      tag_105\n      jump\t// in\n    tag_258:\n        /* \"#utility.yul\":10008:10033   */\n      swap3\n      pop\n        /* \"#utility.yul\":10052:10053   */\n      dup3\n        /* \"#utility.yul\":10042:10077   */\n      tag_259\n      jumpi\n        /* \"#utility.yul\":10057:10075   */\n      tag_260\n      tag_133\n      jump\t// in\n    tag_260:\n        /* \"#utility.yul\":10042:10077   */\n    tag_259:\n        /* \"#utility.yul\":10099:10100   */\n      dup3\n        /* \"#utility.yul\":10096:10097   */\n      dup3\n        /* \"#utility.yul\":10092:10101   */\n      div\n        /* \"#utility.yul\":10087:10101   */\n      swap1\n      pop\n        /* \"#utility.yul\":9922:10107   */\n      swap3\n      swap2\n      pop\n      pop\n      jump\t// out\n        /* \"#utility.yul\":10113:10293   */\n    tag_135:\n        /* \"#utility.yul\":10161:10238   */\n      0x4e487b7100000000000000000000000000000000000000000000000000000000\n        /* \"#utility.yul\":10158:10159   */\n      0x00\n        /* \"#utility.yul\":10151:10239   */\n      mstore\n        /* \"#utility.yul\":10258:10262   */\n      0x22\n        /* \"#utility.yul\":10255:10256   */\n      0x04\n        /* \"#utility.yul\":10248:10263   */\n      mstore\n        /* \"#utility.yul\":10282:10286   */\n      0x24\n        /* \"#utility.yul\":10279:10280   */\n      0x00\n        /* \"#utility.yul\":10272:10287   */\n      revert\n        /* \"#utility.yul\":10299:10619   */\n    tag_80:\n        /* \"#utility.yul\":10343:10349   */\n      0x00\n        /* \"#utility.yul\":10380:10381   */\n      0x02\n        /* \"#utility.yul\":10374:10378   */\n      dup3\n        /* \"#utility.yul\":10370:10382   */\n      div\n        /* \"#utility.yul\":10360:10382   */\n      swap1\n      pop\n        /* \"#utility.yul\":10427:10428   */\n      0x01\n        /* \"#utility.yul\":10421:10425   */\n      dup3\n        /* \"#utility.yul\":10417:10429   */\n      and\n        /* \"#utility.yul\":10448:10466   */\n      dup1\n        /* \"#utility.yul\":10438:10519   */\n      tag_263\n      jumpi\n        /* \"#utility.yul\":10504:10508   */\n      0x7f\n        /* \"#utility.yul\":10496:10502   */\n      dup3\n        /* \"#utility.yul\":10492:10509   */\n      and\n        /* \"#utility.yul\":10482:10509   */\n      swap2\n      pop\n        /* \"#utility.yul\":10438:10519   */\n    tag_263:\n        /* \"#utility.yul\":10566:10568   */\n      0x20\n        /* \"#utility.yul\":10558:10564   */\n      dup3\n        /* \"#utility.yul\":10555:10569   */\n      lt\n        /* \"#utility.yul\":10535:10553   */\n      dup2\n        /* \"#utility.yul\":10532:10570   */\n      sub\n        /* \"#utility.yul\":10529:10613   */\n      tag_264\n      jumpi\n        /* \"#utility.yul\":10585:10603   */\n      tag_265\n      tag_135\n      jump\t// in\n    tag_265:\n        /* \"#utility.yul\":10529:10613   */\n    tag_264:\n        /* \"#utility.yul\":10350:10619   */\n      pop\n        /* \"#utility.yul\":10299:10619   */\n      swap2\n      swap1\n      pop\n      jump\t// out\n        /* \"#utility.yul\":10625:10766   */\n    tag_136:\n        /* \"#utility.yul\":10674:10678   */\n      0x00\n        /* \"#utility.yul\":10697:10700   */\n      dup2\n        /* \"#utility.yul\":10689:10700   */\n      swap1\n      pop\n        /* \"#utility.yul\":10720:10723   */\n      dup2\n        /* \"#utility.yul\":10717:10718   */\n      0x00\n        /* \"#utility.yul\":10710:10724   */\n      mstore\n        /* \"#utility.yul\":10754:10758   */\n      0x20\n        /* \"#utility.yul\":10751:10752   */\n      0x00\n        /* \"#utility.yul\":10741:10759   */\n      keccak256\n        /* \"#utility.yul\":10733:10759   */\n      swap1\n      pop\n        /* \"#utility.yul\":10625:10766   */\n      swap2\n      swap1\n      pop\n      jump\t// out\n        /* \"#utility.yul\":10772:10865   */\n    tag_137:\n        /* \"#utility.yul\":10809:10815   */\n      0x00\n        /* \"#utility.yul\":10856:10858   */\n      0x20\n        /* \"#utility.yul\":10851:10853   */\n      0x1f\n        /* \"#utility.yul\":10844:10849   */\n      dup4\n        /* \"#utility.yul\":10840:10854   */\n      add\n        /* \"#utility.yul\":10836:10859   */\n      div\n        /* \"#utility.yul\":10826:10859   */\n      swap1\n      pop\n        /* \"#utility.yul\":10772:10865   */\n      swap2\n      swap1\n      pop\n      jump\t// out\n        /* \"#utility.yul\":10871:10978   */\n    tag_138:\n        /* \"#utility.yul\":10915:10923   */\n      0x00\n        /* \"#utility.yul\":10965:10970   */\n      dup3\n        /* \"#utility.yul\":10959:10963   */\n      dup3\n        /* \"#utility.yul\":10955:10971   */\n      shl\n        /* \"#utility.yul\":10934:10971   */\n      swap1\n      pop\n        /* \"#utility.yul\":10871:10978   */\n      swap3\n      swap2\n      pop\n      pop\n      jump\t// out\n        /* \"#utility.yul\":10984:11377   */\n    tag_139:\n        /* \"#utility.yul\":11053:11059   */\n      0x00\n        /* \"#utility.yul\":11103:11104   */\n      0x08\n        /* \"#utility.yul\":11091:11101   */\n      dup4\n        /* \"#utility.yul\":11087:11105   */\n      mul\n        /* \"#utility.yul\":11126:11223   */\n      tag_270\n        /* \"#utility.yul\":11156:11222   */\n      0xffffffffffffffffffffffffffffffffffffffffffffffffffffffffffffffff\n        /* \"#utility.yul\":11145:11154   */\n      dup3\n        /* \"#utility.yul\":11126:11223   */\n      tag_138\n      jump\t// in\n    tag_270:\n        /* \"#utility.yul\":11244:11283   */\n      tag_271\n        /* \"#utility.yul\":11274:11282   */\n      dup7\n        /* \"#utility.yul\":11263:11272   */\n      dup4\n        /* \"#utility.yul\":11244:11283   */\n      tag_138\n      jump\t// in\n    tag_271:\n        /* \"#utility.yul\":11232:11283   */\n      swap6\n      pop\n        /* \"#utility.yul\":11316:11320   */\n      dup1\n        /* \"#utility.yul\":11312:11321   */\n      not\n        /* \"#utility.yul\":11305:11310   */\n      dup5\n        /* \"#utility.yul\":11301:11322   */\n      and\n        /* \"#utility.yul\":11292:11322   */\n      swap4\n      pop\n        /* \"#utility.yul\":11365:11369   */\n      dup1\n        /* \"#utility.yul\":11355:11363   */\n      dup7\n        /* \"#utility.yul\":11351:11370   */\n      and\n        /* \"#utility.yul\":11344:11349   */\n      dup5\n        /* \"#utility.yul\":11341:11371   */\n      or\n        /* \"#utility.yul\":11331:11371   */\n      swap3\n      pop\n        /* \"#utility.yul\":11060:11377   */\n      pop\n      pop\n        /* \"#utility.yul\":10984:11377   */\n      swap4\n      swap3\n      pop\n      pop\n      pop\n      jump\t// out\n        /* \"#utility.yul\":11383:11443   */\n    tag_140:\n        /* \"#utility.yul\":11411:11414   */\n      0x00\n        /* \"#utility.yul\":11432:11437   */\n      dup2\n        /* \"#utility.yul\":11425:11437   */\n      swap1\n      pop\n        /* \"#utility.yul\":11383:11443   */\n      swap2\n      swap1\n      pop\n      jump\t// out\n        /* \"#utility.yul\":11449:11591   */\n    tag_141:\n        /* \"#utility.yul\":11499:11508   */\n      0x00\n        /* \"#utility.yul\":11532:11585   */\n      tag_274\n        /* \"#utility.yul\":11550:11584   */\n      tag_275\n        /* \"#utility.yul\":11559:11583   */\n      tag_276\n        /* \"#utility.yul\":11577:11582   */\n      dup5\n        /* \"#utility.yul\":11559:11583   */\n      tag_105\n      jump\t// in\n    tag_276:\n        /* \"#utility.yul\":11550:11584   */\n      tag_140\n      jump\t// in\n    tag_275:\n        /* \"#utility.yul\":11532:11585   */\n      tag_105\n      jump\t// in\n    tag_274:\n        /* \"#utility.yul\":11519:11585   */\n      swap1\n      pop\n        /* \"#utility.yul\":11449:11591   */\n      swap2\n      swap1\n      pop\n      jump\t// out\n        /* \"#utility.yul\":11597:11672   */\n    tag_142:\n        /* \"#utility.yul\":11640:11643   */\n      0x00\n        /* \"#utility.yul\":11661:11666   */\n      dup2\n        /* \"#utility.yul\":11654:11666   */\n      swap1\n      pop\n        /* \"#utility.yul\":11597:11672   */\n      swap2\n      swap1\n      pop\n      jump\t// out\n        /* \"#utility.yul\":11678:11947   */\n    tag_143:\n        /* \"#utility.yul\":11788:11827   */\n      tag_279\n        /* \"#utility.yul\":11819:11826   */\n      dup4\n        /* \"#utility.yul\":11788:11827   */\n      tag_141\n      jump\t// in\n    tag_279:\n        /* \"#utility.yul\":11849:11940   */\n      tag_280\n        /* \"#utility.yul\":11898:11939   */\n      tag_281\n        /* \"#utility.yul\":11922:11938   */\n      dup3\n        /* \"#utility.yul\":11898:11939   */\n      tag_142\n      jump\t// in\n    tag_281:\n        /* \"#utility.yul\":11890:11896   */\n      dup5\n        /* \"#utility.yul\":11883:11887   */\n      dup5\n        /* \"#utility.yul\":11877:11888   */\n      sload\n        /* \"#utility.yul\":11849:11940   */\n      tag_139\n      jump\t// in\n    tag_280:\n        /* \"#utility.yul\":11843:11847   */\n      dup3\n        /* \"#utility.yul\":11836:11941   */\n      sstore\n        /* \"#utility.yul\":11754:11947   */\n      pop\n        /* \"#utility.yul\":11678:11947   */\n      pop\n      pop\n      pop\n      jump\t// out\n        /* \"#utility.yul\":11953:12026   */\n    tag_144:\n        /* \"#utility.yul\":11998:12001   */\n      0x00\n        /* \"#utility.yul\":11953:12026   */\n      swap1\n      jump\t// out\n        /* \"#utility.yul\":12032:12221   */\n    tag_145:\n        /* \"#utility.yul\":12109:12141   */\n      tag_284\n      tag_144\n      jump\t// in\n    tag_284:\n        /* \"#utility.yul\":12150:12215   */\n      tag_285\n        /* \"#utility.yul\":12208:12214   */\n      dup2\n        /* \"#utility.yul\":12200:12206   */\n      dup5\n        /* \"#utility.yul\":12194:12198   */\n      dup5\n        /* \"#utility.yul\":12150:12215   */\n      tag_143\n      jump\t// in\n    tag_285:\n        /* \"#utility.yul\":12085:12221   */\n      pop\n        /* \"#utility.yul\":12032:12221   */\n      pop\n      pop\n      jump\t// out\n        /* \"#utility.yul\":12227:12413   */\n    tag_146:\n        /* \"#utility.yul\":12287:12407   */\n    tag_287:\n        /* \"#utility.yul\":12304:12307   */\n      dup2\n        /* \"#utility.yul\":12297:12302   */\n      dup2\n        /* \"#utility.yul\":12294:12308   */\n      lt\n        /* \"#utility.yul\":12287:12407   */\n      iszero\n      tag_289\n      jumpi\n        /* \"#utility.yul\":12358:12397   */\n      tag_290\n        /* \"#utility.yul\":12395:12396   */\n      0x00\n        /* \"#utility.yul\":12388:12393   */\n      dup3\n        /* \"#utility.yul\":12358:12397   */\n      tag_145\n      jump\t// in\n    tag_290:\n        /* \"#utility.yul\":12331:12332   */\n      0x01\n        /* \"#utility.yul\":12324:12329   */\n      dup2\n        /* \"#utility.yul\":12320:12333   */\n      add\n        /* \"#utility.yul\":12311:12333   */\n      swap1\n      pop\n        /* \"#utility.yul\":12287:12407   */\n      jump(tag_287)\n    tag_289:\n        /* \"#utility.yul\":12227:12413   */\n      pop\n      pop\n      jump\t// out\n        /* \"#utility.yul\":12419:12962   */\n    tag_147:\n        /* \"#utility.yul\":12520:12522   */\n      0x1f\n        /* \"#utility.yul\":12515:12518   */\n      dup3\n        /* \"#utility.yul\":12512:12523   */\n      gt\n        /* \"#utility.yul\":12509:12955   */\n      iszero\n      tag_292\n      jumpi\n        /* \"#utility.yul\":12554:12592   */\n      tag_293\n        /* \"#utility.yul\":12586:12591   */\n      dup2\n        /* \"#utility.yul\":12554:12592   */\n      tag_136\n      jump\t// in\n    tag_293:\n        /* \"#utility.yul\":12638:12667   */\n      tag_294\n        /* \"#utility.yul\":12656:12666   */\n      dup5\n        /* \"#utility.yul\":12638:12667   */\n      tag_137\n      jump\t// in\n    tag_294:\n        /* \"#utility.yul\":12628:12636   */\n      dup2\n        /* \"#utility.yul\":12624:12668   */\n      add\n        /* \"#utility.yul\":12821:12823   */\n      0x20\n        /* \"#utility.yul\":12809:12819   */\n      dup6\n        /* \"#utility.yul\":12806:12824   */\n      lt\n        /* \"#utility.yul\":12803:12852   */\n      iszero\n      tag_295\n      jumpi\n        /* \"#utility.yul\":12842:12850   */\n      dup2\n        /* \"#utility.yul\":12827:12850   */\n      swap1\n      pop\n        /* \"#utility.yul\":12803:12852   */\n    tag_295:\n        /* \"#utility.yul\":12865:12945   */\n      tag_296\n        /* \"#utility.yul\":12921:12943   */\n      tag_297\n        /* \"#utility.yul\":12939:12942   */\n      dup6\n        /* \"#utility.yul\":12921:12943   */\n      tag_137\n      jump\t// in\n    tag_297:\n        /* \"#utility.yul\":12911:12919   */\n      dup4\n        /* \"#utility.yul\":12907:12944   */\n      add\n        /* \"#utility.yul\":12894:12905   */\n      dup3\n        /* \"#utility.yul\":12865:12945   */\n      tag_146\n      jump\t// in\n    tag_296:\n        /* \"#utility.yul\":12524:12955   */\n      pop\n      pop\n        /* \"#utility.yul\":12509:12955   */\n    tag_292:\n        /* \"#utility.yul\":12419:12962   */\n      pop\n      pop\n      pop\n      jump\t// out\n        /* \"#utility.yul\":12968:13085   */\n    tag_148:\n        /* \"#utility.yul\":13022:13030   */\n      0x00\n        /* \"#utility.yul\":13072:13077   */\n      dup3\n        /* \"#utility.yul\":13066:13070   */\n      dup3\n        /* \"#utility.yul\":13062:13078   */\n      shr\n        /* \"#utility.yul\":13041:13078   */\n      swap1\n      pop\n        /* \"#utility.yul\":12968:13085   */\n      swap3\n      swap2\n      pop\n      pop\n      jump\t// out\n        /* \"#utility.yul\":13091:13260   */\n    tag_149:\n        /* \"#utility.yul\":13135:13141   */\n      0x00\n        /* \"#utility.yul\":13168:13219   */\n      tag_300\n        /* \"#utility.yul\":13216:13217   */\n      0x00\n        /* \"#utility.yul\":13212:13218   */\n      not\n        /* \"#utility.yul\":13204:13209   */\n      dup5\n        /* \"#utility.yul\":13201:13202   */\n      0x08\n        /* \"#utility.yul\":13197:13210   */\n      mul\n        /* \"#utility.yul\":13168:13219   */\n      tag_148\n      jump\t// in\n    tag_300:\n        /* \"#utility.yul\":13164:13220   */\n      not\n        /* \"#utility.yul\":13249:13253   */\n      dup1\n        /* \"#utility.yul\":13243:13247   */\n      dup4\n        /* \"#utility.yul\":13239:13254   */\n      and\n        /* \"#utility.yul\":13229:13254   */\n      swap2\n      pop\n        /* \"#utility.yul\":13142:13260   */\n      pop\n        /* \"#utility.yul\":13091:13260   */\n      swap3\n      swap2\n      pop\n      pop\n      jump\t// out\n        /* \"#utility.yul\":13265:13560   */\n    tag_150:\n        /* \"#utility.yul\":13341:13345   */\n      0x00\n        /* \"#utility.yul\":13487:13516   */\n      tag_302\n        /* \"#utility.yul\":13512:13515   */\n      dup4\n        /* \"#utility.yul\":13506:13510   */\n      dup4\n        /* \"#utility.yul\":13487:13516   */\n      tag_149\n      jump\t// in\n    tag_302:\n        /* \"#utility.yul\":13479:13516   */\n      swap2\n      pop\n        /* \"#utility.yul\":13549:13552   */\n      dup3\n        /* \"#utility.yul\":13546:13547   */\n      0x02\n        /* \"#utility.yul\":13542:13553   */\n      mul\n        /* \"#utility.yul\":13536:13540   */\n      dup3\n        /* \"#utility.yul\":13533:13554   */\n      or\n        /* \"#utility.yul\":13525:13554   */\n      swap1\n      pop\n        /* \"#utility.yul\":13265:13560   */\n      swap3\n      swap2\n      pop\n      pop\n      jump\t// out\n        /* \"#utility.yul\":13565:14960   */\n    tag_90:\n        /* \"#utility.yul\":13682:13719   */\n      tag_304\n        /* \"#utility.yul\":13715:13718   */\n      dup3\n        /* \"#utility.yul\":13682:13719   */\n      tag_118\n      jump\t// in\n    tag_304:\n        /* \"#utility.yul\":13784:13802   */\n      0xffffffffffffffff\n        /* \"#utility.yul\":13776:13782   */\n      dup2\n        /* \"#utility.yul\":13773:13803   */\n      gt\n        /* \"#utility.yul\":13770:13826   */\n      iszero\n      tag_305\n      jumpi\n        /* \"#utility.yul\":13806:13824   */\n      tag_306\n      tag_126\n      jump\t// in\n    tag_306:\n        /* \"#utility.yul\":13770:13826   */\n    tag_305:\n        /* \"#utility.yul\":13850:13888   */\n      tag_307\n        /* \"#utility.yul\":13882:13886   */\n      dup3\n        /* \"#utility.yul\":13876:13887   */\n      sload\n        /* \"#utility.yul\":13850:13888   */\n      tag_80\n      jump\t// in\n    tag_307:\n        /* \"#utility.yul\":13935:14002   */\n      tag_308\n        /* \"#utility.yul\":13995:14001   */\n      dup3\n        /* \"#utility.yul\":13987:13993   */\n      dup3\n        /* \"#utility.yul\":13981:13985   */\n      dup6\n        /* \"#utility.yul\":13935:14002   */\n      tag_147\n      jump\t// in\n    tag_308:\n        /* \"#utility.yul\":14029:14030   */\n      0x00\n        /* \"#utility.yul\":14053:14057   */\n      0x20\n        /* \"#utility.yul\":14040:14057   */\n      swap1\n      pop\n        /* \"#utility.yul\":14085:14087   */\n      0x1f\n        /* \"#utility.yul\":14077:14083   */\n      dup4\n        /* \"#utility.yul\":14074:14088   */\n      gt\n        /* \"#utility.yul\":14102:14103   */\n      0x01\n        /* \"#utility.yul\":14097:14715   */\n      dup2\n      eq\n      tag_310\n      jumpi\n        /* \"#utility.yul\":14759:14760   */\n      0x00\n        /* \"#utility.yul\":14776:14782   */\n      dup5\n        /* \"#utility.yul\":14773:14850   */\n      iszero\n      tag_311\n      jumpi\n        /* \"#utility.yul\":14825:14834   */\n      dup3\n        /* \"#utility.yul\":14820:14823   */\n      dup8\n        /* \"#utility.yul\":14816:14835   */\n      add\n        /* \"#utility.yul\":14810:14836   */\n      mload\n        /* \"#utility.yul\":14801:14836   */\n      swap1\n      pop\n        /* \"#utility.yul\":14773:14850   */\n    tag_311:\n        /* \"#utility.yul\":14876:14943   */\n      tag_312\n        /* \"#utility.yul\":14936:14942   */\n      dup6\n        /* \"#utility.yul\":14929:14934   */\n      dup3\n        /* \"#utility.yul\":14876:14943   */\n      tag_150\n      jump\t// in\n    tag_312:\n        /* \"#utility.yul\":14870:14874   */\n      dup7\n        /* \"#utility.yul\":14863:14944   */\n      sstore\n        /* \"#utility.yul\":14732:14954   */\n      pop\n        /* \"#utility.yul\":14067:14954   */\n      jump(tag_309)\n        /* \"#utility.yul\":14097:14715   */\n    tag_310:\n        /* \"#utility.yul\":14149:14153   */\n      0x1f\n        /* \"#utility.yul\":14145:14154   */\n      not\n        /* \"#utility.yul\":14137:14143   */\n      dup5\n        /* \"#utility.yul\":14133:14155   */\n      and\n        /* \"#utility.yul\":14183:14220   */\n      tag_313\n        /* \"#utility.yul\":14215:14219   */\n      dup7\n        /* \"#utility.yul\":14183:14220   */\n      tag_136\n      jump\t// in\n    tag_313:\n        /* \"#utility.yul\":14242:14243   */\n      0x00\n        /* \"#utility.yul\":14256:14464   */\n    tag_314:\n        /* \"#utility.yul\":14270:14277   */\n      dup3\n        /* \"#utility.yul\":14267:14268   */\n      dup2\n        /* \"#utility.yul\":14264:14278   */\n      lt\n        /* \"#utility.yul\":14256:14464   */\n      iszero\n      tag_316\n      jumpi\n        /* \"#utility.yul\":14349:14358   */\n      dup5\n        /* \"#utility.yul\":14344:14347   */\n      dup10\n        /* \"#utility.yul\":14340:14359   */\n      add\n        /* \"#utility.yul\":14334:14360   */\n      mload\n        /* \"#utility.yul\":14326:14332   */\n      dup3\n        /* \"#utility.yul\":14319:14361   */\n      sstore\n        /* \"#utility.yul\":14400:14401   */\n      0x01\n        /* \"#utility.yul\":14392:14398   */\n      dup3\n        /* \"#utility.yul\":14388:14402   */\n      add\n        /* \"#utility.yul\":14378:14402   */\n      swap2\n      pop\n        /* \"#utility.yul\":14447:14449   */\n      0x20\n        /* \"#utility.yul\":14436:14445   */\n      dup6\n        /* \"#utility.yul\":14432:14450   */\n      add\n        /* \"#utility.yul\":14419:14450   */\n      swap5\n      pop\n        /* \"#utility.yul\":14293:14297   */\n      0x20\n        /* \"#utility.yul\":14290:14291   */\n      dup2\n        /* \"#utility.yul\":14286:14298   */\n      add\n        /* \"#utility.yul\":14281:14298   */\n      swap1\n      pop\n        /* \"#utility.yul\":14256:14464   */\n      jump(tag_314)\n    tag_316:\n        /* \"#utility.yul\":14492:14498   */\n      dup7\n        /* \"#utility.yul\":14483:14490   */\n      dup4\n        /* \"#utility.yul\":14480:14499   */\n      lt\n        /* \"#utility.yul\":14477:14656   */\n      iszero\n      tag_317\n      jumpi\n        /* \"#utility.yul\":14550:14559   */\n      dup5\n        /* \"#utility.yul\":14545:14548   */\n      dup10\n        /* \"#utility.yul\":14541:14560   */\n      add\n        /* \"#utility.yul\":14535:14561   */\n      mload\n        /* \"#utility.yul\":14593:14641   */\n      tag_318\n        /* \"#utility.yul\":14635:14639   */\n      0x1f\n        /* \"#utility.yul\":14627:14633   */\n      dup10\n        /* \"#utility.yul\":14623:14640   */\n      and\n        /* \"#utility.yul\":14612:14621   */\n      dup3\n        /* \"#utility.yul\":14593:14641   */\n      tag_149\n      jump\t// in\n    tag_318:\n        /* \"#utility.yul\":14585:14591   */\n      dup4\n        /* \"#utility.yul\":14578:14642   */\n      sstore\n        /* \"#utility.yul\":14500:14656   */\n      pop\n        /* \"#utility.yul\":14477:14656   */\n    tag_317:\n        /* \"#utility.yul\":14702:14703   */\n      0x01\n        /* \"#utility.yul\":14698:14699   */\n      0x02\n        /* \"#utility.yul\":14690:14696   */\n      dup9\n        /* \"#utility.yul\":14686:14700   */\n      mul\n        /* \"#utility.yul\":14682:14704   */\n      add\n        /* \"#utility.yul\":14676:14680   */\n      dup9\n        /* \"#utility.yul\":14669:14705   */\n      sstore\n        /* \"#utility.yul\":14104:14715   */\n      pop\n      pop\n      pop\n        /* \"#utility.yul\":14067:14954   */\n    tag_309:\n      pop\n        /* \"#utility.yul\":13657:14960   */\n      pop\n      pop\n      pop\n        /* \"#utility.yul\":13565:14960   */\n      pop\n      pop\n      jump\t// out\n        /* \"#utility.yul\":14966:15199   */\n    tag_94:\n        /* \"#utility.yul\":15005:15008   */\n      0x00\n        /* \"#utility.yul\":15028:15052   */\n      tag_320\n        /* \"#utility.yul\":15046:15051   */\n      dup3\n        /* \"#utility.yul\":15028:15052   */\n      tag_105\n      jump\t// in\n    tag_320:\n        /* \"#utility.yul\":15019:15052   */\n      swap2\n      pop\n        /* \"#utility.yul\":15074:15140   */\n      0xffffffffffffffffffffffffffffffffffffffffffffffffffffffffffffffff\n        /* \"#utility.yul\":15067:15072   */\n      dup3\n        /* \"#utility.yul\":15064:15141   */\n      sub\n        /* \"#utility.yul\":15061:15164   */\n      tag_321\n      jumpi\n        /* \"#utility.yul\":15144:15162   */\n      tag_322\n      tag_134\n      jump\t// in\n    tag_322:\n        /* \"#utility.yul\":15061:15164   */\n    tag_321:\n        /* \"#utility.yul\":15191:15192   */\n      0x01\n        /* \"#utility.yul\":15184:15189   */\n      dup3\n        /* \"#utility.yul\":15180:15193   */\n      add\n        /* \"#utility.yul\":15173:15193   */\n      swap1\n      pop\n        /* \"#utility.yul\":14966:15199   */\n      swap2\n      swap1\n      pop\n      jump\t// out\n\n    auxdata: 0xa2646970667358221220c8ea37d57bcae1a183f4521001ae1101d66ba35fafde9c9499fae584bca6497364736f6c63430008110033\n}\n","bytecode":{"linkReferences":{},"object":"60806040523480156200001157600080fd5b50604051620012c3380380620012c383398181016040528101906200003791906200012c565b80600160006101000a81548173ffffffffffffffffffffffffffffffffffffffff021916908373ffffffffffffffffffffffffffffffffffffffff16021790555081600281905550505062000173565b600080fd5b6000819050919050565b620000a1816200008c565b8114620000ad57600080fd5b50565b600081519050620000c18162000096565b92915050565b600073ffffffffffffffffffffffffffffffffffffffff82169050919050565b6000620000f482620000c7565b9050919050565b6200010681620000e7565b81146200011257600080fd5b50565b6000815190506200012681620000fb565b92915050565b6000806040838503121562000146576200014562000087565b5b60006200015685828601620000b0565b9250506020620001698582860162000115565b9150509250929050565b61114080620001836000396000f3fe6080604052600436106100915760003560e01c806382fde0931161005957806382fde093146101935780638a9cfd55146101be578063937e09b1146101e7578063d7bb99ba14610212578063d7d1bbdb1461021c57610091565b806303441006146100965780630a144391146100bf5780634051ddac146100fc578063481c6a751461012757806381d12c5814610152575b600080fd5b3480156100a257600080fd5b506100bd60048036038101906100b891906108b5565b610245565b005b3480156100cb57600080fd5b506100e660048036038101906100e19190610940565b61038f565b6040516100f39190610988565b60405180910390f35b34801561010857600080fd5b506101116103af565b60405161011e9190610a29565b60405180910390f35b34801561013357600080fd5b5061013c610424565b6040516101499190610a53565b60405180910390f35b34801561015e57600080fd5b50610179600480360381019061017491906108b5565b61044a565b60405161018a959493929190610b0d565b60405180910390f35b34801561019f57600080fd5b506101a8610545565b6040516101b59190610b67565b60405180910390f35b3480156101ca57600080fd5b506101e560048036038101906101e09190610cb7565b61054b565b005b3480156101f357600080fd5b506101fc610653565b6040516102099190610b67565b60405180910390f35b61021a610659565b005b34801561022857600080fd5b50610243600480360381019061023e91906108b5565b6106da565b005b600160009054906101000a900473ffffffffffffffffffffffffffffffffffffffff1673ffffffffffffffffffffffffffffffffffffffff163373ffffffffffffffffffffffffffffffffffffffff161461029f57600080fd5b60008082815481106102b4576102b3610d26565b5b9060005260206000209060050201905060026004546102d39190610db3565b816003015410156102e357600080fd5b8060020160149054906101000a900460ff16156102ff57600080fd5b8060020160009054906101000a900473ffffffffffffffffffffffffffffffffffffffff1673ffffffffffffffffffffffffffffffffffffffff166108fc82600101549081150290604051600060405180830381858888f1935050505015801561036d573d6000803e3d6000fd5b5060018160020160146101000a81548160ff0219169083151502179055505050565b60036020528060005260406000206000915054906101000a900460ff1681565b6103b7610826565b6040518060a00160405280600160009054906101000a900473ffffffffffffffffffffffffffffffffffffffff1673ffffffffffffffffffffffffffffffffffffffff16815260200160025481526020016000805490508152602001600454815260200147815250905090565b600160009054906101000a900473ffffffffffffffffffffffffffffffffffffffff1681565b6000818154811061045a57600080fd5b906000526020600020906005020160009150905080600001805461047d90610e13565b80601f01602080910402602001604051908101604052809291908181526020018280546104a990610e13565b80156104f65780601f106104cb576101008083540402835291602001916104f6565b820191906000526020600020905b8154815290600101906020018083116104d957829003601f168201915b5050505050908060010154908060020160009054906101000a900473ffffffffffffffffffffffffffffffffffffffff16908060020160149054906101000a900460ff16908060030154905085565b60045481565b600160009054906101000a900473ffffffffffffffffffffffffffffffffffffffff1673ffffffffffffffffffffffffffffffffffffffff163373ffffffffffffffffffffffffffffffffffffffff16146105a557600080fd5b6000806001816001815401808255809150500390600052602060002090600502019050838160000190816105d99190610ff0565b50828160010181905550818160020160006101000a81548173ffffffffffffffffffffffffffffffffffffffff021916908373ffffffffffffffffffffffffffffffffffffffff16021790555060008160020160146101000a81548160ff0219169083151502179055506000816003018190555050505050565b60025481565b60025434101561066857600080fd5b6001600360003373ffffffffffffffffffffffffffffffffffffffff1673ffffffffffffffffffffffffffffffffffffffff16815260200190815260200160002060006101000a81548160ff021916908315150217905550600460008154809291906106d3906110c2565b9190505550565b60008082815481106106ef576106ee610d26565b5b90600052602060002090600502019050600360003373ffffffffffffffffffffffffffffffffffffffff1673ffffffffffffffffffffffffffffffffffffffff16815260200190815260200160002060009054906101000a900460ff1661075557600080fd5b8060040160003373ffffffffffffffffffffffffffffffffffffffff1673ffffffffffffffffffffffffffffffffffffffff16815260200190815260200160002060009054906101000a900460ff16156107ae57600080fd5b60018160040160003373ffffffffffffffffffffffffffffffffffffffff1673ffffffffffffffffffffffffffffffffffffffff16815260200190815260200160002060006101000a81548160ff02191690831515021790555080600301600081548092919061081d906110c2565b91905055505050565b6040518060a00160405280600073ffffffffffffffffffffffffffffffffffffffff168152602001600081526020016000815260200160008152602001600081525090565b6000604051905090565b600080fd5b600080fd5b6000819050919050565b6108928161087f565b811461089d57600080fd5b50565b6000813590506108af81610889565b92915050565b6000602082840312156108cb576108ca610875565b5b60006108d9848285016108a0565b91505092915050565b600073ffffffffffffffffffffffffffffffffffffffff82169050919050565b600061090d826108e2565b9050919050565b61091d81610902565b811461092857600080fd5b50565b60008135905061093a81610914565b92915050565b60006020828403121561095657610955610875565b5b60006109648482850161092b565b91505092915050565b60008115159050919050565b6109828161096d565b82525050565b600060208201905061099d6000830184610979565b92915050565b6109ac81610902565b82525050565b6109bb8161087f565b82525050565b60a0820160008201516109d760008501826109a3565b5060208201516109ea60208501826109b2565b5060408201516109fd60408501826109b2565b506060820151610a1060608501826109b2565b506080820151610a2360808501826109b2565b50505050565b600060a082019050610a3e60008301846109c1565b92915050565b610a4d81610902565b82525050565b6000602082019050610a686000830184610a44565b92915050565b600081519050919050565b600082825260208201905092915050565b60005b83811015610aa8578082015181840152602081019050610a8d565b60008484015250505050565b6000601f19601f8301169050919050565b6000610ad082610a6e565b610ada8185610a79565b9350610aea818560208601610a8a565b610af381610ab4565b840191505092915050565b610b078161087f565b82525050565b600060a0820190508181036000830152610b278188610ac5565b9050610b366020830187610afe565b610b436040830186610a44565b610b506060830185610979565b610b5d6080830184610afe565b9695505050505050565b6000602082019050610b7c6000830184610afe565b92915050565b600080fd5b600080fd5b7f4e487b7100000000000000000000000000000000000000000000000000000000600052604160045260246000fd5b610bc482610ab4565b810181811067ffffffffffffffff82111715610be357610be2610b8c565b5b80604052505050565b6000610bf661086b565b9050610c028282610bbb565b919050565b600067ffffffffffffffff821115610c2257610c21610b8c565b5b610c2b82610ab4565b9050602081019050919050565b82818337600083830152505050565b6000610c5a610c5584610c07565b610bec565b905082815260208101848484011115610c7657610c75610b87565b5b610c81848285610c38565b509392505050565b600082601f830112610c9e57610c9d610b82565b5b8135610cae848260208601610c47565b91505092915050565b600080600060608486031215610cd057610ccf610875565b5b600084013567ffffffffffffffff811115610cee57610ced61087a565b5b610cfa86828701610c89565b9350506020610d0b868287016108a0565b9250506040610d1c8682870161092b565b9150509250925092565b7f4e487b7100000000000000000000000000000000000000000000000000000000600052603260045260246000fd5b7f4e487b7100000000000000000000000000000000000000000000000000000000600052601260045260246000fd5b7f4e487b7100000000000000000000000000000000000000000000000000000000600052601160045260246000fd5b6000610dbe8261087f565b9150610dc98361087f565b925082610dd957610dd8610d55565b5b828204905092915050565b7f4e487b7100000000000000000000000000000000000000000000000000000000600052602260045260246000fd5b60006002820490506001821680610e2b57607f821691505b602082108103610e3e57610e3d610de4565b5b50919050565b60008190508160005260206000209050919050565b60006020601f8301049050919050565b600082821b905092915050565b600060088302610ea67fffffffffffffffffffffffffffffffffffffffffffffffffffffffffffffffff82610e69565b610eb08683610e69565b95508019841693508086168417925050509392505050565b6000819050919050565b6000610eed610ee8610ee38461087f565b610ec8565b61087f565b9050919050565b6000819050919050565b610f0783610ed2565b610f1b610f1382610ef4565b848454610e76565b825550505050565b600090565b610f30610f23565b610f3b818484610efe565b505050565b5b81811015610f5f57610f54600082610f28565b600181019050610f41565b5050565b601f821115610fa457610f7581610e44565b610f7e84610e59565b81016020851015610f8d578190505b610fa1610f9985610e59565b830182610f40565b50505b505050565b600082821c905092915050565b6000610fc760001984600802610fa9565b1980831691505092915050565b6000610fe08383610fb6565b9150826002028217905092915050565b610ff982610a6e565b67ffffffffffffffff81111561101257611011610b8c565b5b61101c8254610e13565b611027828285610f63565b600060209050601f83116001811461105a5760008415611048578287015190505b6110528582610fd4565b8655506110ba565b601f19841661106886610e44565b60005b828110156110905784890151825560018201915060208501945060208101905061106b565b868310156110ad57848901516110a9601f891682610fb6565b8355505b6001600288020188555050505b505050505050565b60006110cd8261087f565b91507fffffffffffffffffffffffffffffffffffffffffffffffffffffffffffffffff82036110ff576110fe610d84565b5b60018201905091905056fea2646970667358221220c8ea37d57bcae1a183f4521001ae1101d66ba35fafde9c9499fae584bca6497364736f6c63430008110033","opcodes":"PUSH1 0x80 PUSH1 0x40 MSTORE CALLVALUE DUP1 ISZERO PUSH3 0x11 JUMPI PUSH1 0x0 DUP1 REVERT JUMPDEST POP PUSH1 0x40 MLOAD PUSH3 0x12C3 CODESIZE SUB DUP1 PUSH3 0x12C3 DUP4 CODECOPY DUP2 DUP2 ADD PUSH1 0x40 MSTORE DUP2 ADD SWAP1 PUSH3 0x37 SWAP2 SWAP1 PUSH3 0x12C JUMP JUMPDEST DUP1 PUSH1 0x1 PUSH1 0x0 PUSH2 0x100 EXP DUP2 SLOAD DUP2 PUSH20 0xFFFFFFFFFFFFFFFFFFFFFFFFFFFFFFFFFFFFFFFF MUL NOT AND SWAP1 DUP4 PUSH20 0xFFFFFFFFFFFFFFFFFFFFFFFFFFFFFFFFFFFFFFFF AND MUL OR SWAP1 SSTORE POP DUP2 PUSH1 0x2 DUP2 SWAP1 SSTORE POP POP POP PUSH3 0x173 JUMP JUMPDEST PUSH1 0x0 DUP1 REVERT JUMPDEST PUSH1 0x0 DUP2 SWAP1 POP SWAP2 SWAP1 POP JUMP JUMPDEST PUSH3 0xA1 DUP2 PUSH3 0x8C JUMP JUMPDEST DUP2 EQ PUSH3 0xAD JUMPI PUSH1 0x0 DUP1 REVERT JUMPDEST POP JUMP JUMPDEST PUSH1 0x0 DUP2 MLOAD SWAP1 POP PUSH3 0xC1 DUP2 PUSH3 0x96 JUMP JUMPDEST SWAP3 SWAP2 POP POP JUMP JUMPDEST PUSH1 0x0 PUSH20 0xFFFFFFFFFFFFFFFFFFFFFFFFFFFFFFFFFFFFFFFF DUP3 AND SWAP1 POP SWAP2 SWAP1 POP JUMP JUMPDEST PUSH1 0x0 PUSH3 0xF4 DUP3 PUSH3 0xC7 JUMP JUMPDEST SWAP1 POP SWAP2 SWAP1 POP JUMP JUMPDEST PUSH3 0x106 DUP2 PUSH3 0xE7 JUMP JUMPDEST DUP2 EQ PUSH3 0x112 JUMPI PUSH1 0x0 DUP1 REVERT JUMPDEST POP JUMP JUMPDEST PUSH1 0x0 DUP2 MLOAD SWAP1 POP PUSH3 0x126 DUP2 PUSH3 0xFB JUMP JUMPDEST SWAP3 SWAP2 POP POP JUMP JUMPDEST PUSH1 0x0 DUP1 PUSH1 0x40 DUP4 DUP6 SUB SLT ISZERO PUSH3 0x146 JUMPI PUSH3 0x145 PUSH3 0x87 JUMP JUMPDEST JUMPDEST PUSH1 0x0 PUSH3 0x156 DUP6 DUP3 DUP7 ADD PUSH3 0xB0 JUMP JUMPDEST SWAP3 POP POP PUSH1 0x20 PUSH3 0x169 DUP6 DUP3 DUP7 ADD PUSH3 0x115 JUMP JUMPDEST SWAP2 POP POP SWAP3 POP SWAP3 SWAP1 POP JUMP JUMPDEST PUSH2 0x1140 DUP1 PUSH3 0x183 PUSH1 0x0 CODECOPY PUSH1 0x0 RETURN INVALID PUSH1 0x80 PUSH1 0x40 MSTORE PUSH1 0x4 CALLDATASIZE LT PUSH2 0x91 JUMPI PUSH1 0x0 CALLDATALOAD PUSH1 0xE0 SHR DUP1 PUSH4 0x82FDE093 GT PUSH2 0x59 JUMPI DUP1 PUSH4 0x82FDE093 EQ PUSH2 0x193 JUMPI DUP1 PUSH4 0x8A9CFD55 EQ PUSH2 0x1BE JUMPI DUP1 PUSH4 0x937E09B1 EQ PUSH2 0x1E7 JUMPI DUP1 PUSH4 0xD7BB99BA EQ PUSH2 0x212 JUMPI DUP1 PUSH4 0xD7D1BBDB EQ PUSH2 0x21C JUMPI PUSH2 0x91 JUMP JUMPDEST DUP1 PUSH4 0x3441006 EQ PUSH2 0x96 JUMPI DUP1 PUSH4 0xA144391 EQ PUSH2 0xBF JUMPI DUP1 PUSH4 0x4051DDAC EQ PUSH2 0xFC JUMPI DUP1 PUSH4 0x481C6A75 EQ PUSH2 0x127 JUMPI DUP1 PUSH4 0x81D12C58 EQ PUSH2 0x152 JUMPI JUMPDEST PUSH1 0x0 DUP1 REVERT JUMPDEST CALLVALUE DUP1 ISZERO PUSH2 0xA2 JUMPI PUSH1 0x0 DUP1 REVERT JUMPDEST POP PUSH2 0xBD PUSH1 0x4 DUP1 CALLDATASIZE SUB DUP2 ADD SWAP1 PUSH2 0xB8 SWAP2 SWAP1 PUSH2 0x8B5 JUMP JUMPDEST PUSH2 0x245 JUMP JUMPDEST STOP JUMPDEST CALLVALUE DUP1 ISZERO PUSH2 0xCB JUMPI PUSH1 0x0 DUP1 REVERT JUMPDEST POP PUSH2 0xE6 PUSH1 0x4 DUP1 CALLDATASIZE SUB DUP2 ADD SWAP1 PUSH2 0xE1 SWAP2 SWAP1 PUSH2 0x940 JUMP JUMPDEST PUSH2 0x38F JUMP JUMPDEST PUSH1 0x40 MLOAD PUSH2 0xF3 SWAP2 SWAP1 PUSH2 0x988 JUMP JUMPDEST PUSH1 0x40 MLOAD DUP1 SWAP2 SUB SWAP1 RETURN JUMPDEST CALLVALUE DUP1 ISZERO PUSH2 0x108 JUMPI PUSH1 0x0 DUP1 REVERT JUMPDEST POP PUSH2 0x111 PUSH2 0x3AF JUMP JUMPDEST PUSH1 0x40 MLOAD PUSH2 0x11E SWAP2 SWAP1 PUSH2 0xA29 JUMP JUMPDEST PUSH1 0x40 MLOAD DUP1 SWAP2 SUB SWAP1 RETURN JUMPDEST CALLVALUE DUP1 ISZERO PUSH2 0x133 JUMPI PUSH1 0x0 DUP1 REVERT JUMPDEST POP PUSH2 0x13C PUSH2 0x424 JUMP JUMPDEST PUSH1 0x40 MLOAD PUSH2 0x149 SWAP2 SWAP1 PUSH2 0xA53 JUMP JUMPDEST PUSH1 0x40 MLOAD DUP1 SWAP2 SUB SWAP1 RETURN JUMPDEST CALLVALUE DUP1 ISZERO PUSH2 0x15E JUMPI PUSH1 0x0 DUP1 REVERT JUMPDEST POP PUSH2 0x179 PUSH1 0x4 DUP1 CALLDATASIZE SUB DUP2 ADD SWAP1 PUSH2 0x174 SWAP2 SWAP1 PUSH2 0x8B5 JUMP JUMPDEST PUSH2 0x44A JUMP JUMPDEST PUSH1 0x40 MLOAD PUSH2 0x18A SWAP6 SWAP5 SWAP4 SWAP3 SWAP2 SWAP1 PUSH2 0xB0D JUMP JUMPDEST PUSH1 0x40 MLOAD DUP1 SWAP2 SUB SWAP1 RETURN JUMPDEST CALLVALUE DUP1 ISZERO PUSH2 0x19F JUMPI PUSH1 0x0 DUP1 REVERT JUMPDEST POP PUSH2 0x1A8 PUSH2 0x545 JUMP JUMPDEST PUSH1 0x40 MLOAD PUSH2 0x1B5 SWAP2 SWAP1 PUSH2 0xB67 JUMP JUMPDEST PUSH1 0x40 MLOAD DUP1 SWAP2 SUB SWAP1 RETURN JUMPDEST CALLVALUE DUP1 ISZERO PUSH2 0x1CA JUMPI PUSH1 0x0 DUP1 REVERT JUMPDEST POP PUSH2 0x1E5 PUSH1 0x4 DUP1 CALLDATASIZE SUB DUP2 ADD SWAP1 PUSH2 0x1E0 SWAP2 SWAP1 PUSH2 0xCB7 JUMP JUMPDEST PUSH2 0x54B JUMP JUMPDEST STOP JUMPDEST CALLVALUE DUP1 ISZERO PUSH2 0x1F3 JUMPI PUSH1 0x0 DUP1 REVERT JUMPDEST POP PUSH2 0x1FC PUSH2 0x653 JUMP JUMPDEST PUSH1 0x40 MLOAD PUSH2 0x209 SWAP2 SWAP1 PUSH2 0xB67 JUMP JUMPDEST PUSH1 0x40 MLOAD DUP1 SWAP2 SUB SWAP1 RETURN JUMPDEST PUSH2 0x21A PUSH2 0x659 JUMP JUMPDEST STOP JUMPDEST CALLVALUE DUP1 ISZERO PUSH2 0x228 JUMPI PUSH1 0x0 DUP1 REVERT JUMPDEST POP PUSH2 0x243 PUSH1 0x4 DUP1 CALLDATASIZE SUB DUP2 ADD SWAP1 PUSH2 0x23E SWAP2 SWAP1 PUSH2 0x8B5 JUMP JUMPDEST PUSH2 0x6DA JUMP JUMPDEST STOP JUMPDEST PUSH1 0x1 PUSH1 0x0 SWAP1 SLOAD SWAP1 PUSH2 0x100 EXP SWAP1 DIV PUSH20 0xFFFFFFFFFFFFFFFFFFFFFFFFFFFFFFFFFFFFFFFF AND PUSH20 0xFFFFFFFFFFFFFFFFFFFFFFFFFFFFFFFFFFFFFFFF AND CALLER PUSH20 0xFFFFFFFFFFFFFFFFFFFFFFFFFFFFFFFFFFFFFFFF AND EQ PUSH2 0x29F JUMPI PUSH1 0x0 DUP1 REVERT JUMPDEST PUSH1 0x0 DUP1 DUP3 DUP2 SLOAD DUP2 LT PUSH2 0x2B4 JUMPI PUSH2 0x2B3 PUSH2 0xD26 JUMP JUMPDEST JUMPDEST SWAP1 PUSH1 0x0 MSTORE PUSH1 0x20 PUSH1 0x0 KECCAK256 SWAP1 PUSH1 0x5 MUL ADD SWAP1 POP PUSH1 0x2 PUSH1 0x4 SLOAD PUSH2 0x2D3 SWAP2 SWAP1 PUSH2 0xDB3 JUMP JUMPDEST DUP2 PUSH1 0x3 ADD SLOAD LT ISZERO PUSH2 0x2E3 JUMPI PUSH1 0x0 DUP1 REVERT JUMPDEST DUP1 PUSH1 0x2 ADD PUSH1 0x14 SWAP1 SLOAD SWAP1 PUSH2 0x100 EXP SWAP1 DIV PUSH1 0xFF AND ISZERO PUSH2 0x2FF JUMPI PUSH1 0x0 DUP1 REVERT JUMPDEST DUP1 PUSH1 0x2 ADD PUSH1 0x0 SWAP1 SLOAD SWAP1 PUSH2 0x100 EXP SWAP1 DIV PUSH20 0xFFFFFFFFFFFFFFFFFFFFFFFFFFFFFFFFFFFFFFFF AND PUSH20 0xFFFFFFFFFFFFFFFFFFFFFFFFFFFFFFFFFFFFFFFF AND PUSH2 0x8FC DUP3 PUSH1 0x1 ADD SLOAD SWAP1 DUP2 ISZERO MUL SWAP1 PUSH1 0x40 MLOAD PUSH1 0x0 PUSH1 0x40 MLOAD DUP1 DUP4 SUB DUP2 DUP6 DUP9 DUP9 CALL SWAP4 POP POP POP POP ISZERO DUP1 ISZERO PUSH2 0x36D JUMPI RETURNDATASIZE PUSH1 0x0 DUP1 RETURNDATACOPY RETURNDATASIZE PUSH1 0x0 REVERT JUMPDEST POP PUSH1 0x1 DUP2 PUSH1 0x2 ADD PUSH1 0x14 PUSH2 0x100 EXP DUP2 SLOAD DUP2 PUSH1 0xFF MUL NOT AND SWAP1 DUP4 ISZERO ISZERO MUL OR SWAP1 SSTORE POP POP POP JUMP JUMPDEST PUSH1 0x3 PUSH1 0x20 MSTORE DUP1 PUSH1 0x0 MSTORE PUSH1 0x40 PUSH1 0x0 KECCAK256 PUSH1 0x0 SWAP2 POP SLOAD SWAP1 PUSH2 0x100 EXP SWAP1 DIV PUSH1 0xFF AND DUP2 JUMP JUMPDEST PUSH2 0x3B7 PUSH2 0x826 JUMP JUMPDEST PUSH1 0x40 MLOAD DUP1 PUSH1 0xA0 ADD PUSH1 0x40 MSTORE DUP1 PUSH1 0x1 PUSH1 0x0 SWAP1 SLOAD SWAP1 PUSH2 0x100 EXP SWAP1 DIV PUSH20 0xFFFFFFFFFFFFFFFFFFFFFFFFFFFFFFFFFFFFFFFF AND PUSH20 0xFFFFFFFFFFFFFFFFFFFFFFFFFFFFFFFFFFFFFFFF AND DUP2 MSTORE PUSH1 0x20 ADD PUSH1 0x2 SLOAD DUP2 MSTORE PUSH1 0x20 ADD PUSH1 0x0 DUP1 SLOAD SWAP1 POP DUP2 MSTORE PUSH1 0x20 ADD PUSH1 0x4 SLOAD DUP2 MSTORE PUSH1 0x20 ADD SELFBALANCE DUP2 MSTORE POP SWAP1 POP SWAP1 JUMP JUMPDEST PUSH1 0x1 PUSH1 0x0 SWAP1 SLOAD SWAP1 PUSH2 0x100 EXP SWAP1 DIV PUSH20 0xFFFFFFFFFFFFFFFFFFFFFFFFFFFFFFFFFFFFFFFF AND DUP2 JUMP JUMPDEST PUSH1 0x0 DUP2 DUP2 SLOAD DUP2 LT PUSH2 0x45A JUMPI PUSH1 0x0 DUP1 REVERT JUMPDEST SWAP1 PUSH1 0x0 MSTORE PUSH1 0x20 PUSH1 0x0 KECCAK256 SWAP1 PUSH1 0x5 MUL ADD PUSH1 0x0 SWAP2 POP SWAP1 POP DUP1 PUSH1 0x0 ADD DUP1 SLOAD PUSH2 0x47D SWAP1 PUSH2 0xE13 JUMP JUMPDEST DUP1 PUSH1 0x1F ADD PUSH1 0x20 DUP1 SWAP2 DIV MUL PUSH1 0x20 ADD PUSH1 0x40 MLOAD SWAP1 DUP2 ADD PUSH1 0x40 MSTORE DUP1 SWAP3 SWAP2 SWAP1 DUP2 DUP2 MSTORE PUSH1 0x20 ADD DUP3 DUP1 SLOAD PUSH2 0x4A9 SWAP1 PUSH2 0xE13 JUMP JUMPDEST DUP1 ISZERO PUSH2 0x4F6 JUMPI DUP1 PUSH1 0x1F LT PUSH2 0x4CB JUMPI PUSH2 0x100 DUP1 DUP4 SLOAD DIV MUL DUP4 MSTORE SWAP2 PUSH1 0x20 ADD SWAP2 PUSH2 0x4F6 JUMP JUMPDEST DUP3 ADD SWAP2 SWAP1 PUSH1 0x0 MSTORE PUSH1 0x20 PUSH1 0x0 KECCAK256 SWAP1 JUMPDEST DUP2 SLOAD DUP2 MSTORE SWAP1 PUSH1 0x1 ADD SWAP1 PUSH1 0x20 ADD DUP1 DUP4 GT PUSH2 0x4D9 JUMPI DUP3 SWAP1 SUB PUSH1 0x1F AND DUP3 ADD SWAP2 JUMPDEST POP POP POP POP POP SWAP1 DUP1 PUSH1 0x1 ADD SLOAD SWAP1 DUP1 PUSH1 0x2 ADD PUSH1 0x0 SWAP1 SLOAD SWAP1 PUSH2 0x100 EXP SWAP1 DIV PUSH20 0xFFFFFFFFFFFFFFFFFFFFFFFFFFFFFFFFFFFFFFFF AND SWAP1 DUP1 PUSH1 0x2 ADD PUSH1 0x14 SWAP1 SLOAD SWAP1 PUSH2 0x100 EXP SWAP1 DIV PUSH1 0xFF AND SWAP1 DUP1 PUSH1 0x3 ADD SLOAD SWAP1 POP DUP6 JUMP JUMPDEST PUSH1 0x4 SLOAD DUP2 JUMP JUMPDEST PUSH1 0x1 PUSH1 0x0 SWAP1 SLOAD SWAP1 PUSH2 0x100 EXP SWAP1 DIV PUSH20 0xFFFFFFFFFFFFFFFFFFFFFFFFFFFFFFFFFFFFFFFF AND PUSH20 0xFFFFFFFFFFFFFFFFFFFFFFFFFFFFFFFFFFFFFFFF AND CALLER PUSH20 0xFFFFFFFFFFFFFFFFFFFFFFFFFFFFFFFFFFFFFFFF AND EQ PUSH2 0x5A5 JUMPI PUSH1 0x0 DUP1 REVERT JUMPDEST PUSH1 0x0 DUP1 PUSH1 0x1 DUP2 PUSH1 0x1 DUP2 SLOAD ADD DUP1 DUP3 SSTORE DUP1 SWAP2 POP POP SUB SWAP1 PUSH1 0x0 MSTORE PUSH1 0x20 PUSH1 0x0 KECCAK256 SWAP1 PUSH1 0x5 MUL ADD SWAP1 POP DUP4 DUP2 PUSH1 0x0 ADD SWAP1 DUP2 PUSH2 0x5D9 SWAP2 SWAP1 PUSH2 0xFF0 JUMP JUMPDEST POP DUP3 DUP2 PUSH1 0x1 ADD DUP2 SWAP1 SSTORE POP DUP2 DUP2 PUSH1 0x2 ADD PUSH1 0x0 PUSH2 0x100 EXP DUP2 SLOAD DUP2 PUSH20 0xFFFFFFFFFFFFFFFFFFFFFFFFFFFFFFFFFFFFFFFF MUL NOT AND SWAP1 DUP4 PUSH20 0xFFFFFFFFFFFFFFFFFFFFFFFFFFFFFFFFFFFFFFFF AND MUL OR SWAP1 SSTORE POP PUSH1 0x0 DUP2 PUSH1 0x2 ADD PUSH1 0x14 PUSH2 0x100 EXP DUP2 SLOAD DUP2 PUSH1 0xFF MUL NOT AND SWAP1 DUP4 ISZERO ISZERO MUL OR SWAP1 SSTORE POP PUSH1 0x0 DUP2 PUSH1 0x3 ADD DUP2 SWAP1 SSTORE POP POP POP POP POP JUMP JUMPDEST PUSH1 0x2 SLOAD DUP2 JUMP JUMPDEST PUSH1 0x2 SLOAD CALLVALUE LT ISZERO PUSH2 0x668 JUMPI PUSH1 0x0 DUP1 REVERT JUMPDEST PUSH1 0x1 PUSH1 0x3 PUSH1 0x0 CALLER PUSH20 0xFFFFFFFFFFFFFFFFFFFFFFFFFFFFFFFFFFFFFFFF AND PUSH20 0xFFFFFFFFFFFFFFFFFFFFFFFFFFFFFFFFFFFFFFFF AND DUP2 MSTORE PUSH1 0x20 ADD SWAP1 DUP2 MSTORE PUSH1 0x20 ADD PUSH1 0x0 KECCAK256 PUSH1 0x0 PUSH2 0x100 EXP DUP2 SLOAD DUP2 PUSH1 0xFF MUL NOT AND SWAP1 DUP4 ISZERO ISZERO MUL OR SWAP1 SSTORE POP PUSH1 0x4 PUSH1 0x0 DUP2 SLOAD DUP1 SWAP3 SWAP2 SWAP1 PUSH2 0x6D3 SWAP1 PUSH2 0x10C2 JUMP JUMPDEST SWAP2 SWAP1 POP SSTORE POP JUMP JUMPDEST PUSH1 0x0 DUP1 DUP3 DUP2 SLOAD DUP2 LT PUSH2 0x6EF JUMPI PUSH2 0x6EE PUSH2 0xD26 JUMP JUMPDEST JUMPDEST SWAP1 PUSH1 0x0 MSTORE PUSH1 0x20 PUSH1 0x0 KECCAK256 SWAP1 PUSH1 0x5 MUL ADD SWAP1 POP PUSH1 0x3 PUSH1 0x0 CALLER PUSH20 0xFFFFFFFFFFFFFFFFFFFFFFFFFFFFFFFFFFFFFFFF AND PUSH20 0xFFFFFFFFFFFFFFFFFFFFFFFFFFFFFFFFFFFFFFFF AND DUP2 MSTORE PUSH1 0x20 ADD SWAP1 DUP2 MSTORE PUSH1 0x20 ADD PUSH1 0x0 KECCAK256 PUSH1 0x0 SWAP1 SLOAD SWAP1 PUSH2 0x100 EXP SWAP1 DIV PUSH1 0xFF AND PUSH2 0x755 JUMPI PUSH1 0x0 DUP1 REVERT JUMPDEST DUP1 PUSH1 0x4 ADD PUSH1 0x0 CALLER PUSH20 0xFFFFFFFFFFFFFFFFFFFFFFFFFFFFFFFFFFFFFFFF AND PUSH20 0xFFFFFFFFFFFFFFFFFFFFFFFFFFFFFFFFFFFFFFFF AND DUP2 MSTORE PUSH1 0x20 ADD SWAP1 DUP2 MSTORE PUSH1 0x20 ADD PUSH1 0x0 KECCAK256 PUSH1 0x0 SWAP1 SLOAD SWAP1 PUSH2 0x100 EXP SWAP1 DIV PUSH1 0xFF AND ISZERO PUSH2 0x7AE JUMPI PUSH1 0x0 DUP1 REVERT JUMPDEST PUSH1 0x1 DUP2 PUSH1 0x4 ADD PUSH1 0x0 CALLER PUSH20 0xFFFFFFFFFFFFFFFFFFFFFFFFFFFFFFFFFFFFFFFF AND PUSH20 0xFFFFFFFFFFFFFFFFFFFFFFFFFFFFFFFFFFFFFFFF AND DUP2 MSTORE PUSH1 0x20 ADD SWAP1 DUP2 MSTORE PUSH1 0x20 ADD PUSH1 0x0 KECCAK256 PUSH1 0x0 PUSH2 0x100 EXP DUP2 SLOAD DUP2 PUSH1 0xFF MUL NOT AND SWAP1 DUP4 ISZERO ISZERO MUL OR SWAP1 SSTORE POP DUP1 PUSH1 0x3 ADD PUSH1 0x0 DUP2 SLOAD DUP1 SWAP3 SWAP2 SWAP1 PUSH2 0x81D SWAP1 PUSH2 0x10C2 JUMP JUMPDEST SWAP2 SWAP1 POP SSTORE POP POP POP JUMP JUMPDEST PUSH1 0x40 MLOAD DUP1 PUSH1 0xA0 ADD PUSH1 0x40 MSTORE DUP1 PUSH1 0x0 PUSH20 0xFFFFFFFFFFFFFFFFFFFFFFFFFFFFFFFFFFFFFFFF AND DUP2 MSTORE PUSH1 0x20 ADD PUSH1 0x0 DUP2 MSTORE PUSH1 0x20 ADD PUSH1 0x0 DUP2 MSTORE PUSH1 0x20 ADD PUSH1 0x0 DUP2 MSTORE PUSH1 0x20 ADD PUSH1 0x0 DUP2 MSTORE POP SWAP1 JUMP JUMPDEST PUSH1 0x0 PUSH1 0x40 MLOAD SWAP1 POP SWAP1 JUMP JUMPDEST PUSH1 0x0 DUP1 REVERT JUMPDEST PUSH1 0x0 DUP1 REVERT JUMPDEST PUSH1 0x0 DUP2 SWAP1 POP SWAP2 SWAP1 POP JUMP JUMPDEST PUSH2 0x892 DUP2 PUSH2 0x87F JUMP JUMPDEST DUP2 EQ PUSH2 0x89D JUMPI PUSH1 0x0 DUP1 REVERT JUMPDEST POP JUMP JUMPDEST PUSH1 0x0 DUP2 CALLDATALOAD SWAP1 POP PUSH2 0x8AF DUP2 PUSH2 0x889 JUMP JUMPDEST SWAP3 SWAP2 POP POP JUMP JUMPDEST PUSH1 0x0 PUSH1 0x20 DUP3 DUP5 SUB SLT ISZERO PUSH2 0x8CB JUMPI PUSH2 0x8CA PUSH2 0x875 JUMP JUMPDEST JUMPDEST PUSH1 0x0 PUSH2 0x8D9 DUP5 DUP3 DUP6 ADD PUSH2 0x8A0 JUMP JUMPDEST SWAP2 POP POP SWAP3 SWAP2 POP POP JUMP JUMPDEST PUSH1 0x0 PUSH20 0xFFFFFFFFFFFFFFFFFFFFFFFFFFFFFFFFFFFFFFFF DUP3 AND SWAP1 POP SWAP2 SWAP1 POP JUMP JUMPDEST PUSH1 0x0 PUSH2 0x90D DUP3 PUSH2 0x8E2 JUMP JUMPDEST SWAP1 POP SWAP2 SWAP1 POP JUMP JUMPDEST PUSH2 0x91D DUP2 PUSH2 0x902 JUMP JUMPDEST DUP2 EQ PUSH2 0x928 JUMPI PUSH1 0x0 DUP1 REVERT JUMPDEST POP JUMP JUMPDEST PUSH1 0x0 DUP2 CALLDATALOAD SWAP1 POP PUSH2 0x93A DUP2 PUSH2 0x914 JUMP JUMPDEST SWAP3 SWAP2 POP POP JUMP JUMPDEST PUSH1 0x0 PUSH1 0x20 DUP3 DUP5 SUB SLT ISZERO PUSH2 0x956 JUMPI PUSH2 0x955 PUSH2 0x875 JUMP JUMPDEST JUMPDEST PUSH1 0x0 PUSH2 0x964 DUP5 DUP3 DUP6 ADD PUSH2 0x92B JUMP JUMPDEST SWAP2 POP POP SWAP3 SWAP2 POP POP JUMP JUMPDEST PUSH1 0x0 DUP2 ISZERO ISZERO SWAP1 POP SWAP2 SWAP1 POP JUMP JUMPDEST PUSH2 0x982 DUP2 PUSH2 0x96D JUMP JUMPDEST DUP3 MSTORE POP POP JUMP JUMPDEST PUSH1 0x0 PUSH1 0x20 DUP3 ADD SWAP1 POP PUSH2 0x99D PUSH1 0x0 DUP4 ADD DUP5 PUSH2 0x979 JUMP JUMPDEST SWAP3 SWAP2 POP POP JUMP JUMPDEST PUSH2 0x9AC DUP2 PUSH2 0x902 JUMP JUMPDEST DUP3 MSTORE POP POP JUMP JUMPDEST PUSH2 0x9BB DUP2 PUSH2 0x87F JUMP JUMPDEST DUP3 MSTORE POP POP JUMP JUMPDEST PUSH1 0xA0 DUP3 ADD PUSH1 0x0 DUP3 ADD MLOAD PUSH2 0x9D7 PUSH1 0x0 DUP6 ADD DUP3 PUSH2 0x9A3 JUMP JUMPDEST POP PUSH1 0x20 DUP3 ADD MLOAD PUSH2 0x9EA PUSH1 0x20 DUP6 ADD DUP3 PUSH2 0x9B2 JUMP JUMPDEST POP PUSH1 0x40 DUP3 ADD MLOAD PUSH2 0x9FD PUSH1 0x40 DUP6 ADD DUP3 PUSH2 0x9B2 JUMP JUMPDEST POP PUSH1 0x60 DUP3 ADD MLOAD PUSH2 0xA10 PUSH1 0x60 DUP6 ADD DUP3 PUSH2 0x9B2 JUMP JUMPDEST POP PUSH1 0x80 DUP3 ADD MLOAD PUSH2 0xA23 PUSH1 0x80 DUP6 ADD DUP3 PUSH2 0x9B2 JUMP JUMPDEST POP POP POP POP JUMP JUMPDEST PUSH1 0x0 PUSH1 0xA0 DUP3 ADD SWAP1 POP PUSH2 0xA3E PUSH1 0x0 DUP4 ADD DUP5 PUSH2 0x9C1 JUMP JUMPDEST SWAP3 SWAP2 POP POP JUMP JUMPDEST PUSH2 0xA4D DUP2 PUSH2 0x902 JUMP JUMPDEST DUP3 MSTORE POP POP JUMP JUMPDEST PUSH1 0x0 PUSH1 0x20 DUP3 ADD SWAP1 POP PUSH2 0xA68 PUSH1 0x0 DUP4 ADD DUP5 PUSH2 0xA44 JUMP JUMPDEST SWAP3 SWAP2 POP POP JUMP JUMPDEST PUSH1 0x0 DUP2 MLOAD SWAP1 POP SWAP2 SWAP1 POP JUMP JUMPDEST PUSH1 0x0 DUP3 DUP3 MSTORE PUSH1 0x20 DUP3 ADD SWAP1 POP SWAP3 SWAP2 POP POP JUMP JUMPDEST PUSH1 0x0 JUMPDEST DUP4 DUP2 LT ISZERO PUSH2 0xAA8 JUMPI DUP1 DUP3 ADD MLOAD DUP2 DUP5 ADD MSTORE PUSH1 0x20 DUP2 ADD SWAP1 POP PUSH2 0xA8D JUMP JUMPDEST PUSH1 0x0 DUP5 DUP5 ADD MSTORE POP POP POP POP JUMP JUMPDEST PUSH1 0x0 PUSH1 0x1F NOT PUSH1 0x1F DUP4 ADD AND SWAP1 POP SWAP2 SWAP1 POP JUMP JUMPDEST PUSH1 0x0 PUSH2 0xAD0 DUP3 PUSH2 0xA6E JUMP JUMPDEST PUSH2 0xADA DUP2 DUP6 PUSH2 0xA79 JUMP JUMPDEST SWAP4 POP PUSH2 0xAEA DUP2 DUP6 PUSH1 0x20 DUP7 ADD PUSH2 0xA8A JUMP JUMPDEST PUSH2 0xAF3 DUP2 PUSH2 0xAB4 JUMP JUMPDEST DUP5 ADD SWAP2 POP POP SWAP3 SWAP2 POP POP JUMP JUMPDEST PUSH2 0xB07 DUP2 PUSH2 0x87F JUMP JUMPDEST DUP3 MSTORE POP POP JUMP JUMPDEST PUSH1 0x0 PUSH1 0xA0 DUP3 ADD SWAP1 POP DUP2 DUP2 SUB PUSH1 0x0 DUP4 ADD MSTORE PUSH2 0xB27 DUP2 DUP9 PUSH2 0xAC5 JUMP JUMPDEST SWAP1 POP PUSH2 0xB36 PUSH1 0x20 DUP4 ADD DUP8 PUSH2 0xAFE JUMP JUMPDEST PUSH2 0xB43 PUSH1 0x40 DUP4 ADD DUP7 PUSH2 0xA44 JUMP JUMPDEST PUSH2 0xB50 PUSH1 0x60 DUP4 ADD DUP6 PUSH2 0x979 JUMP JUMPDEST PUSH2 0xB5D PUSH1 0x80 DUP4 ADD DUP5 PUSH2 0xAFE JUMP JUMPDEST SWAP7 SWAP6 POP POP POP POP POP POP JUMP JUMPDEST PUSH1 0x0 PUSH1 0x20 DUP3 ADD SWAP1 POP PUSH2 0xB7C PUSH1 0x0 DUP4 ADD DUP5 PUSH2 0xAFE JUMP JUMPDEST SWAP3 SWAP2 POP POP JUMP JUMPDEST PUSH1 0x0 DUP1 REVERT JUMPDEST PUSH1 0x0 DUP1 REVERT JUMPDEST PUSH32 0x4E487B7100000000000000000000000000000000000000000000000000000000 PUSH1 0x0 MSTORE PUSH1 0x41 PUSH1 0x4 MSTORE PUSH1 0x24 PUSH1 0x0 REVERT JUMPDEST PUSH2 0xBC4 DUP3 PUSH2 0xAB4 JUMP JUMPDEST DUP2 ADD DUP2 DUP2 LT PUSH8 0xFFFFFFFFFFFFFFFF DUP3 GT OR ISZERO PUSH2 0xBE3 JUMPI PUSH2 0xBE2 PUSH2 0xB8C JUMP JUMPDEST JUMPDEST DUP1 PUSH1 0x40 MSTORE POP POP POP JUMP JUMPDEST PUSH1 0x0 PUSH2 0xBF6 PUSH2 0x86B JUMP JUMPDEST SWAP1 POP PUSH2 0xC02 DUP3 DUP3 PUSH2 0xBBB JUMP JUMPDEST SWAP2 SWAP1 POP JUMP JUMPDEST PUSH1 0x0 PUSH8 0xFFFFFFFFFFFFFFFF DUP3 GT ISZERO PUSH2 0xC22 JUMPI PUSH2 0xC21 PUSH2 0xB8C JUMP JUMPDEST JUMPDEST PUSH2 0xC2B DUP3 PUSH2 0xAB4 JUMP JUMPDEST SWAP1 POP PUSH1 0x20 DUP2 ADD SWAP1 POP SWAP2 SWAP1 POP JUMP JUMPDEST DUP3 DUP2 DUP4 CALLDATACOPY PUSH1 0x0 DUP4 DUP4 ADD MSTORE POP POP POP JUMP JUMPDEST PUSH1 0x0 PUSH2 0xC5A PUSH2 0xC55 DUP5 PUSH2 0xC07 JUMP JUMPDEST PUSH2 0xBEC JUMP JUMPDEST SWAP1 POP DUP3 DUP2 MSTORE PUSH1 0x20 DUP2 ADD DUP5 DUP5 DUP5 ADD GT ISZERO PUSH2 0xC76 JUMPI PUSH2 0xC75 PUSH2 0xB87 JUMP JUMPDEST JUMPDEST PUSH2 0xC81 DUP5 DUP3 DUP6 PUSH2 0xC38 JUMP JUMPDEST POP SWAP4 SWAP3 POP POP POP JUMP JUMPDEST PUSH1 0x0 DUP3 PUSH1 0x1F DUP4 ADD SLT PUSH2 0xC9E JUMPI PUSH2 0xC9D PUSH2 0xB82 JUMP JUMPDEST JUMPDEST DUP2 CALLDATALOAD PUSH2 0xCAE DUP5 DUP3 PUSH1 0x20 DUP7 ADD PUSH2 0xC47 JUMP JUMPDEST SWAP2 POP POP SWAP3 SWAP2 POP POP JUMP JUMPDEST PUSH1 0x0 DUP1 PUSH1 0x0 PUSH1 0x60 DUP5 DUP7 SUB SLT ISZERO PUSH2 0xCD0 JUMPI PUSH2 0xCCF PUSH2 0x875 JUMP JUMPDEST JUMPDEST PUSH1 0x0 DUP5 ADD CALLDATALOAD PUSH8 0xFFFFFFFFFFFFFFFF DUP2 GT ISZERO PUSH2 0xCEE JUMPI PUSH2 0xCED PUSH2 0x87A JUMP JUMPDEST JUMPDEST PUSH2 0xCFA DUP7 DUP3 DUP8 ADD PUSH2 0xC89 JUMP JUMPDEST SWAP4 POP POP PUSH1 0x20 PUSH2 0xD0B DUP7 DUP3 DUP8 ADD PUSH2 0x8A0 JUMP JUMPDEST SWAP3 POP POP PUSH1 0x40 PUSH2 0xD1C DUP7 DUP3 DUP8 ADD PUSH2 0x92B JUMP JUMPDEST SWAP2 POP POP SWAP3 POP SWAP3 POP SWAP3 JUMP JUMPDEST PUSH32 0x4E487B7100000000000000000000000000000000000000000000000000000000 PUSH1 0x0 MSTORE PUSH1 0x32 PUSH1 0x4 MSTORE PUSH1 0x24 PUSH1 0x0 REVERT JUMPDEST PUSH32 0x4E487B7100000000000000000000000000000000000000000000000000000000 PUSH1 0x0 MSTORE PUSH1 0x12 PUSH1 0x4 MSTORE PUSH1 0x24 PUSH1 0x0 REVERT JUMPDEST PUSH32 0x4E487B7100000000000000000000000000000000000000000000000000000000 PUSH1 0x0 MSTORE PUSH1 0x11 PUSH1 0x4 MSTORE PUSH1 0x24 PUSH1 0x0 REVERT JUMPDEST PUSH1 0x0 PUSH2 0xDBE DUP3 PUSH2 0x87F JUMP JUMPDEST SWAP2 POP PUSH2 0xDC9 DUP4 PUSH2 0x87F JUMP JUMPDEST SWAP3 POP DUP3 PUSH2 0xDD9 JUMPI PUSH2 0xDD8 PUSH2 0xD55 JUMP JUMPDEST JUMPDEST DUP3 DUP3 DIV SWAP1 POP SWAP3 SWAP2 POP POP JUMP JUMPDEST PUSH32 0x4E487B7100000000000000000000000000000000000000000000000000000000 PUSH1 0x0 MSTORE PUSH1 0x22 PUSH1 0x4 MSTORE PUSH1 0x24 PUSH1 0x0 REVERT JUMPDEST PUSH1 0x0 PUSH1 0x2 DUP3 DIV SWAP1 POP PUSH1 0x1 DUP3 AND DUP1 PUSH2 0xE2B JUMPI PUSH1 0x7F DUP3 AND SWAP2 POP JUMPDEST PUSH1 0x20 DUP3 LT DUP2 SUB PUSH2 0xE3E JUMPI PUSH2 0xE3D PUSH2 0xDE4 JUMP JUMPDEST JUMPDEST POP SWAP2 SWAP1 POP JUMP JUMPDEST PUSH1 0x0 DUP2 SWAP1 POP DUP2 PUSH1 0x0 MSTORE PUSH1 0x20 PUSH1 0x0 KECCAK256 SWAP1 POP SWAP2 SWAP1 POP JUMP JUMPDEST PUSH1 0x0 PUSH1 0x20 PUSH1 0x1F DUP4 ADD DIV SWAP1 POP SWAP2 SWAP1 POP JUMP JUMPDEST PUSH1 0x0 DUP3 DUP3 SHL SWAP1 POP SWAP3 SWAP2 POP POP JUMP JUMPDEST PUSH1 0x0 PUSH1 0x8 DUP4 MUL PUSH2 0xEA6 PUSH32 0xFFFFFFFFFFFFFFFFFFFFFFFFFFFFFFFFFFFFFFFFFFFFFFFFFFFFFFFFFFFFFFFF DUP3 PUSH2 0xE69 JUMP JUMPDEST PUSH2 0xEB0 DUP7 DUP4 PUSH2 0xE69 JUMP JUMPDEST SWAP6 POP DUP1 NOT DUP5 AND SWAP4 POP DUP1 DUP7 AND DUP5 OR SWAP3 POP POP POP SWAP4 SWAP3 POP POP POP JUMP JUMPDEST PUSH1 0x0 DUP2 SWAP1 POP SWAP2 SWAP1 POP JUMP JUMPDEST PUSH1 0x0 PUSH2 0xEED PUSH2 0xEE8 PUSH2 0xEE3 DUP5 PUSH2 0x87F JUMP JUMPDEST PUSH2 0xEC8 JUMP JUMPDEST PUSH2 0x87F JUMP JUMPDEST SWAP1 POP SWAP2 SWAP1 POP JUMP JUMPDEST PUSH1 0x0 DUP2 SWAP1 POP SWAP2 SWAP1 POP JUMP JUMPDEST PUSH2 0xF07 DUP4 PUSH2 0xED2 JUMP JUMPDEST PUSH2 0xF1B PUSH2 0xF13 DUP3 PUSH2 0xEF4 JUMP JUMPDEST DUP5 DUP5 SLOAD PUSH2 0xE76 JUMP JUMPDEST DUP3 SSTORE POP POP POP POP JUMP JUMPDEST PUSH1 0x0 SWAP1 JUMP JUMPDEST PUSH2 0xF30 PUSH2 0xF23 JUMP JUMPDEST PUSH2 0xF3B DUP2 DUP5 DUP5 PUSH2 0xEFE JUMP JUMPDEST POP POP POP JUMP JUMPDEST JUMPDEST DUP2 DUP2 LT ISZERO PUSH2 0xF5F JUMPI PUSH2 0xF54 PUSH1 0x0 DUP3 PUSH2 0xF28 JUMP JUMPDEST PUSH1 0x1 DUP2 ADD SWAP1 POP PUSH2 0xF41 JUMP JUMPDEST POP POP JUMP JUMPDEST PUSH1 0x1F DUP3 GT ISZERO PUSH2 0xFA4 JUMPI PUSH2 0xF75 DUP2 PUSH2 0xE44 JUMP JUMPDEST PUSH2 0xF7E DUP5 PUSH2 0xE59 JUMP JUMPDEST DUP2 ADD PUSH1 0x20 DUP6 LT ISZERO PUSH2 0xF8D JUMPI DUP2 SWAP1 POP JUMPDEST PUSH2 0xFA1 PUSH2 0xF99 DUP6 PUSH2 0xE59 JUMP JUMPDEST DUP4 ADD DUP3 PUSH2 0xF40 JUMP JUMPDEST POP POP JUMPDEST POP POP POP JUMP JUMPDEST PUSH1 0x0 DUP3 DUP3 SHR SWAP1 POP SWAP3 SWAP2 POP POP JUMP JUMPDEST PUSH1 0x0 PUSH2 0xFC7 PUSH1 0x0 NOT DUP5 PUSH1 0x8 MUL PUSH2 0xFA9 JUMP JUMPDEST NOT DUP1 DUP4 AND SWAP2 POP POP SWAP3 SWAP2 POP POP JUMP JUMPDEST PUSH1 0x0 PUSH2 0xFE0 DUP4 DUP4 PUSH2 0xFB6 JUMP JUMPDEST SWAP2 POP DUP3 PUSH1 0x2 MUL DUP3 OR SWAP1 POP SWAP3 SWAP2 POP POP JUMP JUMPDEST PUSH2 0xFF9 DUP3 PUSH2 0xA6E JUMP JUMPDEST PUSH8 0xFFFFFFFFFFFFFFFF DUP2 GT ISZERO PUSH2 0x1012 JUMPI PUSH2 0x1011 PUSH2 0xB8C JUMP JUMPDEST JUMPDEST PUSH2 0x101C DUP3 SLOAD PUSH2 0xE13 JUMP JUMPDEST PUSH2 0x1027 DUP3 DUP3 DUP6 PUSH2 0xF63 JUMP JUMPDEST PUSH1 0x0 PUSH1 0x20 SWAP1 POP PUSH1 0x1F DUP4 GT PUSH1 0x1 DUP2 EQ PUSH2 0x105A JUMPI PUSH1 0x0 DUP5 ISZERO PUSH2 0x1048 JUMPI DUP3 DUP8 ADD MLOAD SWAP1 POP JUMPDEST PUSH2 0x1052 DUP6 DUP3 PUSH2 0xFD4 JUMP JUMPDEST DUP7 SSTORE POP PUSH2 0x10BA JUMP JUMPDEST PUSH1 0x1F NOT DUP5 AND PUSH2 0x1068 DUP7 PUSH2 0xE44 JUMP JUMPDEST PUSH1 0x0 JUMPDEST DUP3 DUP2 LT ISZERO PUSH2 0x1090 JUMPI DUP5 DUP10 ADD MLOAD DUP3 SSTORE PUSH1 0x1 DUP3 ADD SWAP2 POP PUSH1 0x20 DUP6 ADD SWAP5 POP PUSH1 0x20 DUP2 ADD SWAP1 POP PUSH2 0x106B JUMP JUMPDEST DUP7 DUP4 LT ISZERO PUSH2 0x10AD JUMPI DUP5 DUP10 ADD MLOAD PUSH2 0x10A9 PUSH1 0x1F DUP10 AND DUP3 PUSH2 0xFB6 JUMP JUMPDEST DUP4 SSTORE POP JUMPDEST PUSH1 0x1 PUSH1 0x2 DUP9 MUL ADD DUP9 SSTORE POP POP POP JUMPDEST POP POP POP POP POP POP JUMP JUMPDEST PUSH1 0x0 PUSH2 0x10CD DUP3 PUSH2 0x87F JUMP JUMPDEST SWAP2 POP PUSH32 0xFFFFFFFFFFFFFFFFFFFFFFFFFFFFFFFFFFFFFFFFFFFFFFFFFFFFFFFFFFFFFFFF DUP3 SUB PUSH2 0x10FF JUMPI PUSH2 0x10FE PUSH2 0xD84 JUMP JUMPDEST JUMPDEST PUSH1 0x1 DUP3 ADD SWAP1 POP SWAP2 SWAP1 POP JUMP INVALID LOG2 PUSH5 0x6970667358 0x22 SLT KECCAK256 0xC8 0xEA CALLDATACOPY 0xD5 PUSH28 0xCAE1A183F4521001AE1101D66BA35FAFDE9C9499FAE584BCA6497364 PUSH20 0x6F6C634300081100330000000000000000000000 "},"gasEstimates":{"creation":{"codeDepositCost":"883200","executionCost":"infinite","totalCost":"infinite"},"external":{"approveRequest(uint256)":"infinite","approvers(address)":"2868","approversCount()":"2429","contribute()":"51024","createRequest(string,uint256,address)":"infinite","finalizeRequest(uint256)":"infinite","getSummary()":"infinite","manager()":"2581","minimumContribution()":"2473","requests(uint256)":"infinite"}},"methodIdentifiers":{"approveRequest(uint256)":"d7d1bbdb","approvers(address)":"0a144391","approversCount()":"82fde093","contribute()":"d7bb99ba","createRequest(string,uint256,address)":"8a9cfd55","finalizeRequest(uint256)":"03441006","getSummary()":"4051ddac","manager()":"481c6a75","minimumContribution()":"937e09b1","requests(uint256)":"81d12c58"}},"storageLayout":{"storage":[{"astId":72,"contract":"Campaign.sol:Campaign","label":"requests","offset":0,"slot":"0","type":"t_array(t_struct(Request)57_storage)dyn_storage"},{"astId":74,"contract":"Campaign.sol:Campaign","label":"manager","offset":0,"slot":"1","type":"t_address"},{"astId":76,"contract":"Campaign.sol:Campaign","label":"minimumContribution","offset":0,"slot":"2","type":"t_uint256"},{"astId":80,"contract":"Campaign.sol:Campaign","label":"approvers","offset":0,"slot":"3","type":"t_mapping(t_address,t_bool)"},{"astId":82,"contract":"Campaign.sol:Campaign","label":"approversCount","offset":0,"slot":"4","type":"t_uint256"}],"types":{"t_address":{"encoding":"inplace","label":"address","numberOfBytes":"20"},"t_array(t_struct(Request)57_storage)dyn_storage":{"base":"t_struct(Request)57_storage","encoding":"dynamic_array","label":"struct Campaign.Request[]","numberOfBytes":"32"},"t_bool":{"encoding":"inplace","label":"bool","numberOfBytes":"1"},"t_mapping(t_address,t_bool)":{"encoding":"mapping","key":"t_address","label":"mapping(address => bool)","numberOfBytes":"32","value":"t_bool"},"t_string_storage":{"encoding":"bytes","label":"string","numberOfBytes":"32"},"t_struct(Request)57_storage":{"encoding":"inplace","label":"struct Campaign.Request","members":[{"astId":44,"contract":"Campaign.sol:Campaign","label":"description","offset":0,"slot":"0","type":"t_string_storage"},{"astId":46,"contract":"Campaign.sol:Campaign","label":"value","offset":0,"slot":"1","type":"t_uint256"},{"astId":48,"contract":"Campaign.sol:Campaign","label":"recipient","offset":0,"slot":"2","type":"t_address"},{"astId":50,"contract":"Campaign.sol:Campaign","label":"complete","offset":20,"slot":"2","type":"t_bool"},{"astId":52,"contract":"Campaign.sol:Campaign","label":"approvalsCount","offset":0,"slot":"3","type":"t_uint256"},{"astId":56,"contract":"Campaign.sol:Campaign","label":"approvals","offset":0,"slot":"4","type":"t_mapping(t_address,t_bool)"}],"numberOfBytes":"160"},"t_uint256":{"encoding":"inplace","label":"uint256","numberOfBytes":"32"}}},"userdoc":{"kind":"user","methods":{},"version":1}}